:020000040800F2
:10000000683800209D010008D97A00088560000842
:10001000757400083D1700084DA600080000000098
:1000200000000000000000000000000051830008F4
:10003000AD1A000800000000BD8000083D870008E0
:10004000B7010008B7010008B7010008B7010008B0
:10005000B7010008B7010008B7010008B7010008A0
:10006000B7010008B7010008B7010008B701000890
:10007000B7010008B7010008B7010008B701000880
:10008000B7010008B7010008B7010008B701000870
:10009000B7010008B7010008B7010008B701000860
:1000A0001588000825880008B7010008B701000876
:1000B00035880008B701000845880008B701000826
:1000C000B7010008B7010008B7010008B701000830
:1000D000B7010008FDA40008B70100080DA500083D
:1000E000B7010008B7010008B7010008B701000810
:1000F000B7010008B7010008B7010008B701000800
:10010000B7010008B701000855880008B7010008CA
:10011000B7010008B7010008B7010008B7010008DF
:10012000D5180008E5180008F5180008B701000800
:10013000B7010008B7010008B7010008B7010008BF
:10014000B7010008B7010008B7010008B7010008AF
:10015000B7010008B7010008051900081DA500082F
:10016000B7010008B7010008B7010008B70100088F
:10017000B7010008B7010008B7010008000000003F
:10018000B7010008B7010008DFF80CD000F036FF17
:1001900000480047A1BD0008683800200648804795
:1001A00006480047FEE7FEE7FEE7FEE7FEE7FEE75C
:1001B000FEE7FEE7FEE7FEE7018800088901000888
:1001C0002DE9F05F0546002092469B46884606468C
:1001D000814640241BE0284641464746224600F01F
:1001E00069FA53465A46C01A914110D3114618462F
:1001F000224600F050FA2D1A67EB01084F462246BE
:100200000120002100F047FA17EB00094E41201EA3
:10021000A4F10104DFDC484631462A464346BDE8E6
:10022000F09F40EA01039B0703D009E008C9121FB1
:1002300008C0042AFAD203E011F8013B00F8013BA0
:10024000521EF9D27047D2B201E000F8012B491ECC
:10025000FBD270470022F6E710B513460A46044663
:100260001946FFF7F0FF204610BD00000FB400B59F
:100270008DB010A909900B9000914FF0FF300A90BB
:1002800000200C9005480690054807906A4609A88A
:100290000F9900F0A9FD0DB05DF814FB050E0008E4
:1002A000230E00082DE9FE4F804681EA0300C00FAF
:1002B0000C46009021F0004123F00045B8EB02000D
:1002C000A94105D24046214690461C460B460246AF
:1002D00023F00040104347D0270DC7F30A00C3F3B3
:1002E0000A510290401A019040286BDAC3F31300C0
:1002F00040F4801B0098924620B10023D2EB030A01
:1003000063EB0B0B01985946C0F14002504600F0D8
:10031000C2F906460D4650465946019A00F0DAF9F0
:1003200010EB08006141002487EA115284EAE77368
:100330001A4340D0009A62B3019A012A4FEA075249
:1003400015DC001B61EB02014FF0004202EA07528C
:10035000CDE90042001C41F5801132462B4600F0E9
:10036000B7FD03B0BDE8F08F40462146F9E7001B1A
:1003700061EB0201001C41F5801300185B4120185D
:10038000A2F5001747EB030140EAD570B6196D419D
:1003900011E06D084FEA360645EAC0754FEA07528C
:1003A000001B61EB0201001C41F5801149084FEA76
:1003B00030000019514132462B4603B0BDE8F04FE2
:1003C00000F077BD0098012240000023D0EB02022C
:1003D00063EBE073009821464FEAE074B8EB00004D
:1003E00061EB0401E9E783F000435BE781F0004142
:1003F00058E72DE9FE4F81EA030404F0004421F0A0
:10040000004100944FF0000B23F0004350EA010438
:100410005ED052EA03045BD0C3F30A54C1F30A5519
:100420002C44A4F2F3340194A0FB0254C1F3130151
:1004300041F48011C3F3130343F4801301FB02441E
:1004400000FB034E840A970A44EA815447EA835723
:10045000A4FB076802958D0A05FB07854FEA932CDC
:1004600004FB0C542705029D4FEA065847EA16374D
:10047000B5EB08056EEB070C870E920E47EA811765
:1004800042EA8312A7FB0201B6EB0B0164EB000406
:100490002B0D43EA0C335E1844EB1C50DA465146F0
:1004A000E7FB0201C5F313044FEA0B3343EA14538D
:1004B0004FEA0432019C43EA0603A4F10C040294BF
:1004C000009CCDE900B400F003FD03B0BDE8F08F5F
:1004D00000200146F9E72DE9F04D81EA030404F01C
:1004E000004B21F0004514464FF0000A23F0004174
:1004F00050EA050220D054EA01021DD0C5F30A5784
:100500000246C5F31303C1F31300C1F30A5640F4C6
:10051000801543F48013A7EB0608101BD64608F29B
:10052000FD3873EB050002D308F1010801E09218D1
:100530005B41B8F1000F03DA00200146BDE8F08D01
:1005400000204FF48011064684460EE0171B73EB23
:10055000050705D3121B63EB050306434CEA010CA8
:1005600049084FEA300092185B4150EA0107EDD18B
:1005700052EA030012D082EA040083EA050108432C
:1005800005D0101BAB4106D20122002306E0002259
:100590004FF0004302E06FF0010253101AEB060027
:1005A0004CEB085110EB0A0041EB0B01BDE8F04D9C
:1005B00000F07FBC30B5041E71F1000404DB4FF085
:1005C0000044404264EB0101141E73F1000405DB9A
:1005D0001C464FF00043524263EB0403101A8B4158
:1005E00001D3012030BD002030BD0EB5C10F80EA1F
:1005F000E0700844CA07002140F233438DE80E0042
:100600000A460B4600F064FC03B000BD00F0004257
:1006100030F000400AD0C10D01F56071C0F3160042
:1006200042EA0151C20840071143704700200146C9
:10063000704701F0004330B421F0004150EA01025C
:1006400006D00A0DA2F56072C1F31301002A02DC84
:1006500030BC00207047440F44EAC104C100E018D8
:1006600030BC00EBC25000F0EDBB30B50B4601468C
:1006700000202022012409E021FA02F59D4205D341
:1006800003FA02F5491B04FA02F52844151EA2F1EB
:100690000102F1DC30BD202A04DB203A00FA02F12D
:1006A000002070479140C2F1200320FA03F3194360
:1006B00090407047202A04DB203A21FA02F0002102
:1006C000704721FA02F3D040C2F120029140084362
:1006D00019467047202A06DBCB17203A41FA02F070
:1006E00043EAE07306E041FA02F3D040C2F120028F
:1006F00091400843194670472DE9FF4F1C4681B0D1
:100700000021D4E9016791464FF0FF358A468846BB
:10071000A1696D1C02988847216A83468847002892
:10072000F6D1BBF1FF3F0CD026F4C066002F1ADDD6
:10073000700615D5BBF12B0F0AD0BBF12D0F0FD1D1
:1007400004E04FF0FF3005B0BDE8F08F46F480665E
:10075000A1696D1C029888477F1E8346002F02DD29
:10076000BBF1300F03D0B9F1000F2AD025E0A16909
:100770006D1C46F400767F1E029888478346002F42
:1007800005DDBBF1780F06D0BBF1580F03D0B9F1EE
:10079000000F10D011E0B9F1000F02D0B9F1100F25
:1007A0000BD1A1696D1C26F400767F1E0298884744
:1007B0008346102000E0082081464FEAE97000904F
:1007C00017E00A20F8E74346AAFB092803FB098043
:1007D000DDF800C07F1E0AFB0C0112EB0B0A41EB97
:1007E000EB78A16946F4007605F101050298884787
:1007F0008346002F06DD4946584600F01CFC5FEAA0
:10080000000BE0D5E16902988847B00502D46FF08B
:10081000010098E7F00718D1700610D57005514611
:1008200005D50023D1EB030163EB080200E042464B
:100830002068031D23600068C0E9001205E02068FD
:10084000011D21600068C0E900A828467BE72DE96A
:10085000FF5F1D464FF0FF3BD5E9014691465F46DD
:100860004FF00008A9697F1C01988847296A8246D1
:1008700088470028F6D1BAF1FF3F0CD024F4C064B9
:10088000002E19DD600614D5BAF12B0F09D0BAF18C
:100890002D0F0ED103E0584604B0BDE8F09F44F49C
:1008A0008064A9697F1C01988847761E8246002EC5
:1008B00002DDBAF1300F03D0B9F1000F26D032E0DB
:1008C000A969761E44F400747F1C0198884782460B
:1008D000002E05DDBAF1780F06D0BAF1580F03D01B
:1008E000B9F1000F10D01EE0B9F1000F02D0B9F13C
:1008F000100F18D1A969761E24F400747F1C01988A
:1009000088478246102002E0082000E00A20814645
:1009100009E008FB0908A969761E44F400747F1CED
:10092000019888478246002E05DD4946504600F072
:1009300082FB0028EDDAE96901988847A00502D416
:100940006FF00100A8E7E00725D1600613D5600528
:1009500002D5C8F1000000E0404629680A1D2A605F
:100960000968220501D5087015E0220701D5088025
:1009700011E008600FE02868011D2960006821056A
:1009800002D580F8008006E0210702D5A0F800809B
:1009900001E0C0F8008038467EE72DE9FF5FD2E92C
:1009A00001A74FF00008916999461446DDF838B068
:1009B000464601988847054659EA0B0005D009E0EC
:1009C000A169761C019888470546216A2846884710
:1009D0000028F5D1681C03D05FEACA7005D015E085
:1009E0004FF0FF3004B0BDE8F09F2068011D21608A
:1009F000D0F800800AE05FEACA7001D108F8015B14
:100A0000A169761C7F1E019888470546002F1ADDD4
:100A1000681C18D0B9F1000F0DD0E81705EBD060B5
:100A2000421120F01F0059F822102A1A012090408C
:100A30000142E0D107E0BBF1000FDCD1216A28467A
:100A400088470028D7D0E16901988847BBF1000F9B
:100A500007D1002E05DD5FEACA7002D1002188F8B7
:100A60000010A068B84203DDBBF1000F03D017B13E
:100A70006FF00100B6E73046B4E700002DE9FF4F04
:100A8000087883B09946FF2805D0491C2D2804D04A
:100A90000024002008E000200BE00124F9E700EB2F
:100AA000800003EB4000491C0B78FF2BF7D104B109
:100AB000404200230293147819461D462D2C01D084
:100AC0002B2C04D1521C2D2C13D000240294AA46A6
:100AD0001478FF2C0FD00A25A3FB057801FB0581B4
:100AE0004FF0000C03FB0C11521CE3194AEB0101FF
:100AF000EEE70124EAE7814453EA010002D019F548
:100B0000C87F06DA03980021C0E9001107B0BDE8EC
:100B1000F08F0025AE4E2F46DFF8B882184600F061
:100B200080FCCDE90001B9F1000002DAC9F100044E
:100B300000E004460023A74A1AEB030B42EB045AD9
:100B400012E0E00707D02A46334638464146FFF711
:100B500050FC074688462A46334610461946FFF79A
:100B600048FC05460E466410002CEAD1DDE9000180
:100B7000B9F1000F5A46534606DAFFF7ACFC3A4685
:100B80004346FFF7A8FC05E0FFF733FC3A4643462F
:100B9000FFF72FFC029A0AB181F00041039AC2E9E3
:100BA0000001B3E72DE9FF4F1F468DB0D7E901469D
:100BB0004FF0FF382E2045464FF000090B90B969E1
:100BC0006D1C0E988847396A824688470028F6D1FE
:100BD000BAF1FF3F0AD024F4D064002E11DDBAF13F
:100BE0002B0F08D0BAF12D0F0BD102E0404611B007
:100BF0008DE744F48064B9696D1C0E98884782467D
:100C0000761E6946600501D52D2000E02B208DF869
:100C1000000001F1010B0DF1200809E0B9696D1C1C
:100C20000E98884782460F9844F40074761E05603B
:100C3000002E02DDBAF1300FF0D00B998A453ED17B
:100C400044F0800406E00F99681CA9F1010944F4FE
:100C500000740860B9696D1C761E0E98884782463C
:100C60003028F0D02BE00B998A4505D1200603D41B
:100C700044F08004761E18E050460CF0B5F808B336
:100C80000DF11302761EAAF1300044F4007493456E
:100C900006D20BF8010B200607D5A9F1010003E0ED
:100CA000200602D409F101008146A00502D50F9962
:100CB000681C0860B9696D1C0E9888478246002E32
:100CC000D1DC53E0002E51DDBAF1650F02D0BAF14C
:100CD000450F4BD1A00549D5B9696D1C24F440746A
:100CE000761E0E9888478246002E0CDD2B2804D0F5
:100CF000BAF12D0F07D144F48074B9696D1C0E98B8
:100D000088478246761EE00501D52D2100E02B2183
:100D100008F8011BCDF82C8021E00DF12901761E89
:100D200044F4007488450CD2AAF1300010F0FF00A2
:100D300088F8000002D10B99884509D908F101080B
:100D400006E0E00501D5244801E042F20F7081463B
:100D5000B9696D1C0E98884782460F980560002E71
:100D600004DD50460CF040F80028D6D1F9690E9801
:100D70008847FF208BF8000088F8000000200690CC
:100D800007904B466A4608A906A8FFF777FEA0051C
:100D900002D46FF001002AE714F0240F0AD0E00714
:100DA00014D1DDE906123868031D3B600068C0E914
:100DB00000120BE0DDE90601FFF73BFC0146E0070E
:100DC00004D13868021D3A600068016028460EE7C9
:100DD000000014400000F03FF1D8FFFF026811440A
:100DE0001378016018467047D16004495161044985
:100DF000116200211161114600F02CB9DD0D0008CF
:100E00002D100008426842B1016811F8013B23B17E
:100E1000521EC0E90012184670470121C160881EA9
:100E2000704742685AB1C368016843B983688B420E
:100E300005D0491E521CC0E90012002070474FF037
:100E4000FF3070470029A8BF7047401C490008BF09
:100E500020F00100704710B4B0FA80FC00FA0CF0EA
:100E600050EA010404BF10BC704749B1CCF1200422
:100E700021FA04F411FA0CF118BF012121430843AF
:100E8000A3EB0C01CB1D4FEA00614FEA102042BFDB
:100E9000002010BC704700EBC35010440029A4BFD1
:100EA00010BC7047401C490008BF20F0010010BC76
:100EB000704710B5141E73F1000408DA401C41F1AC
:100EC000000192185B411A4301D120F0010010BDCE
:100ED0002DE9F04D92469B4611B1B1FA81F202E044
:100EE000B0FA80F220329046FFF7D5FB04460F4659
:100EF00040EA0A0041EA0B0153465A46084313D020
:100F0000114653EA010019D0C8F140025046FFF7DC
:100F1000D1FB05460E46504659464246FFF7BBFBFD
:100F2000084305D0012004E020463946BDE8F08D95
:100F30000020054346EAE0762C4337430A986305D0
:100F4000E40AA0EB08000022FD0A44EA47540A30F4
:100F500002D500200146E9E7010510196941DDE9E4
:100F6000084500196941BDE8F04DA2E7C1F30A52F6
:100F7000C1F3130140F2FF3341F480119A4202DAC7
:100F800000200146704740F233439A42A2F23342B6
:100F900002DC5242FFF78EBBFFF77DBB30B5041E6B
:100FA00071F1000404DB4FF00044404264EB0101A6
:100FB000141E73F1000405DB1C464FF0004352423F
:100FC00063EB04038B4208BF824230BD30B5041E80
:100FD00071F1000404DB4FF00044404264EB010176
:100FE000141E73F1000405DB1C464FF0004352420F
:100FF00063EB0403994208BF904230BD1CB5094819
:101000000090094801900546009C06E0E06840F029
:10101000010394E8070098471034AC42F6D3FFF779
:10102000B7F80000700C0108900C0108C0B24FF432
:10103000F05100F003BA3A2800D2303820F02002F4
:10104000412A01D3A2F13700884201D34FF0FF308B
:10105000704700002DE9F34F8BB04FF0000801F10D
:101060000C000C464FF0010B46460DF1080A0190AA
:101070006269012101989047051E2DD0252D2CD0A5
:10108000216A8847C0B16269012101989047216AAD
:1010900088470028F7D1411E62690198904700E017
:1010A000761CA1690B988847216A88470028F7D1E8
:1010B000E1690B988847DBE7A1690B9888470746E9
:1010C000A84201D1761CD3E7E1690B9888477F1CC1
:1010D00002D1B8F1000F6FD046E1002762693D46AA
:1010E0003946019890472A2804D162690121019864
:1010F00090470125DFF884926269012101989047A9
:10110000A0F130010A290AD24F45E5DC07EB87013F
:1011100000EB4107303FDFD445F01005ECE7E9066E
:1011200001D46FF000476C280AD04C2814D06828EE
:1011300015D06A280DD074281CD07A281AD01DE04A
:1011400062690121019890476C2802D045F004059E
:1011500014E045F002050DE045F020050AE0626963
:10116000012101989047682802D045F0080505E064
:1011700045F400656269012101989047C4E901576F
:1011800065283DD019DC58287AD00CDC452837D0AA
:1011900004DC252826D0412831D131E046282FD043
:1011A00047282CD12CE05B2877D0612828D06328F1
:1011B0007CD0642823D15AE0D0E06F2848D008DCE6
:1011C00066281DD067281BD0692821D06E2816D12B
:1011D00027E0702845D0732868D0752847D0782834
:1011E0000DD14DE0A1690B988847054625283FF4AD
:1011F00069AFE1690B9888476D1C3FF46AAFB3E0B3
:1012000023466A466FF001000B99FFF7CBFC9EE086
:1012100045F040006060A80723464FF0000236D436
:101220003EE0E8077FF447AF2068011D21600068B9
:10123000290501D506701BE7290701D5068017E7A8
:10124000A90703D5F117C0E9006111E706600FE7B0
:1012500045F040006060A80723464FF0080216D40E
:101260001EE040F60E0125EA0100606016E045F040
:1012700040006060A80723464FF00A0207D40FE041
:1012800045F040006060A80708D5234610226FF0A3
:1012900001000B99FFF730FA59E007E023461022CE
:1012A0006FF001000B99FFF7D2FA50E04FF0000900
:1012B0004F464B46632802D05B2806D040E0E80644
:1012C00001D40120A06001273AE062690121019860
:1012D00090475E2805D14FF001096269494601989F
:1012E0009047216939B900210A46534643F8212025
:1012F000491C0829FADBB0B3216969B9C11700EBB1
:10130000D16253110AEB830122F01F02821A0120DD
:101310000B68904003430B6062690121019890477C
:101320005D28E8D1B9F1000F09D00020514651F8ED
:101330002020D24341F82020401C0828F7DB02ABD4
:10134000224600976FF001000B99FFF726FB00285B
:101350000CDA401C08D1BBF1000F05D04FF0FF3074
:101360000DB0BDE8F08FFFE74046F9E7E90701D18E
:1013700008F1010806444FF0000B79E6CCCCCC0C08
:101380002DE9F04D00231A461B1A8A4103DB002089
:101390000146BDE8F08DC1F30A52C1F3130141F4D7
:1013A00080154FF0000BD10702D100186D41521E7D
:1013B0000027044640F2FF11384601EB620A3E4620
:1013C0008046024600204FF48011FFF773F9C219DE
:1013D0007141BB1846EB0100B4EB030C75EB000C3C
:1013E00004D3E41A65EB000517460E46241908F1EC
:1013F00001006D4180463428E3DDF91946EB060013
:10140000091BA84103D24FF0FF32134601E000222E
:1014100013461BEB070046EB0A51BDE8F04DFFF702
:1014200048BD0EB540F2334202920022CDE90022BF
:101430001346FFF74DFD03B000BD00007F2801D922
:10144000002208E0064A02EB5002C007127800D1E1
:10145000120902F00F02012090400840704700007E
:10146000D0D6000870B58C1810F8015B15F0070392
:1014700001D110F8013B2A1106D110F8012B03E02D
:1014800010F8016B01F8016B5B1EF9D12B0705D435
:101490000023521E0DD401F8013BFAE710F8013B7E
:1014A000CB1A921C03E013F8015B01F8015B521E9A
:1014B000F9D5A142D8D3002070BD000080B582B01C
:1014C00001900198806B00900098006C10F0500F14
:1014D0003AD1FFE70099086C40F400700864009866
:1014E0000068806810F0405F2AD1FFE70098007E16
:1014F00030BBFFE700980068C06A10F4700F07D097
:10150000FFE70098006880684005002818D4FFE7CE
:1015100000980168486820F0200048600099086C35
:1015200020F4807008640098006CC004002806D481
:10153000FFE70099086C40F001000864FFE7FFE74F
:10154000009800F03BFE10E00098006CC0060028F8
:1015500004D5FFE7009800F039FE05E00098806BA5
:10156000C16C01988847FFE7FFE702B080BD00002B
:1015700080B582B001900198806B00900099402066
:1015800008640099486C40F004004864009800F03A
:101590001DFE02B080BD000080B582B001900198B0
:1015A000806B0090009800F00DFE02B080BD00003E
:1015B00082B0019042F20030C4F201000090009924
:1015C000486820F4403048600198426800994868B3
:1015D0001043486001980168486820F480704860B2
:1015E000019801680269486840EA02204860019851
:1015F0000168486820F0407048600198016882687E
:1016000048681043486001980168886820F40060C9
:10161000886001980168C2688868104388600198F2
:10162000806A0121C0F60071884219D0FFE7019855
:101630000168886820F07060886001980168826A9B
:1016400088681043886001980168886820F04050DD
:10165000886001980168C26A8868104388600CE05D
:1016600001980168886820F07060886001980168BE
:10167000886820F040508860FFE70198016888681A
:1016800020F0020088600198027E0168886840EAC4
:1016900042008860019890F82000C8B1FFE70198E7
:1016A0000168486840F40060486001980168486833
:1016B00020F46040486001980168426A4EF20000E0
:1016C000CFF6FF7000EB423248681043486006E0F6
:1016D00001980168486820F400604860FFE70198BD
:1016E0000168C86A20F47000C86201980168C26984
:1016F0000020CFF6F07000EB0252C86A1043C862B7
:1017000001980168886820F400708860019890F85A
:1017100030200168886840EA4220886001980168AA
:10172000886820F480608860019801684269886850
:1017300040EA8220886002B070470000FFE7FEE7C1
:1017400080B582B041F6AD60C2F200004078D8B1F9
:10175000FFE741F6AD60C2F200008078A0B9FFE774
:1017600041F6F660C2F20000008814280CDCFFE7A6
:1017700006208DF807009DF8071040F21C20C2F2E9
:1017800000000AF087FCFFE741F6AD60C2F20000FE
:101790008078042838D0FFE741F6AD60C2F200003F
:1017A0008078062830D0FFE741F6AD60C2F2000035
:1017B00080780A2828D0FFE741F6AD60C2F2000029
:1017C00080780C2820D0FFE741F6AD60C2F200001F
:1017D0008078122818D0FFE741F6AD60C2F2000011
:1017E0008078142810D0FFE741F6AD60C2F2000007
:1017F0008078182808D0FFE741F6AD60C2F20000FB
:1018000080781A2814D1FFE741F6F660C2F2000092
:10181000008815280CDBFFE707208DF807009DF8EE
:10182000071040F21C20C2F200000AF033FCFFE770
:1018300002B080BD41F68C61C2F200010020C86197
:10184000886148610861C8608860486008607047C6
:1018500083B08DED020ACDED010A9DED020A9DEDEA
:10186000011A30EE410A8DED000AFFE79DED000AF6
:101870009FED141AB4EE410AF1EE10FA09DDFFE70C
:101880009DED000A9FED121A30EE010A8DED000A5F
:10189000ECE7FFE79DED000A9FED0B1AB4EE410A5D
:1018A000F1EE10FA09DAFFE79DED000A9FED071A45
:1018B00030EE010A8DED000AECE79DED000A03B061
:1018C000704700BF00003443000034C30000B4433D
:1018D0000000B4C380B541F6E470C2F2000000F02D
:1018E000FFFE80BD80B542F20410C2F2000000F09D
:1018F000F7FE80BD80B542F24400C2F2000000F065
:10190000EFFE80BD80B542F2A400C2F2000000F0FC
:10191000E7FE80BD82B001900198007810384AF649
:10192000AB21CAF6AA21A0FB011000090090009982
:101930004DF22870C0F60000405C0199C86500981F
:10194000042807D3FFE701990868042262F309001D
:10195000886506E00199086840F2FF329043886587
:10196000FFE70198806D02B07047000086B00590D7
:1019700000208DF813000598806A0390059880690F
:1019800010BBFFE70398029003281BD80299DFE8F9
:1019900001F0020D0218059890F82F00C00720B141
:1019A000FFE701208DF81300FFE70CE00598C06AFF
:1019B000B0F1C07F04D1FFE701208DF81300FFE7ED
:1019C00001E000E0FFE745E005988069B0F5005FC1
:1019D00025D1FFE70398019003281ED80199DFE87D
:1019E00001F00206021101208DF8130016E005989F
:1019F00090F82F00C00720B1FFE701208DF81300F9
:101A0000FFE70BE00598C06AB0F1C07F04D1FFE7A3
:101A100001208DF81300FFE700E0FFE719E00398CD
:101A20000090032804D3FFE70098032804D00EE0B9
:101A300001208DF813000BE0059890F82F00C007E7
:101A400020B1FFE701208DF81300FFE700E0FFE77A
:101A5000FFE7FFE79DF8130006B0704784B00390DE
:101A600002910192009303980168086820F4802095
:101A700008600098039909684860039880684028C6
:101A800009D1FFE7019803990968886002980399D2
:101A90000968C86008E0029803990968886001989D
:101AA00003990968C860FFE704B0704770470000F9
:101AB00080B582B0009042F22C70C2F20000007833
:101AC000012806D1FFE7009800F04EF88DF80700D6
:101AD00012E042F22C70C2F200000078022806D117
:101AE000FFE7009806F0F8FA8DF8070004E0FFE73A
:101AF00000208DF80700FFE79DF8070002B080BDC9
:101B000072B6FFE7FEE7000085B0039002910398EC
:101B100020B1FFE70298002804DCFFE74FF0FF3018
:101B200004901EE00020019001200090FFE7009843
:101B30000299884212DAFFE70399009831F8100001
:101B4000019A31F81210884203DDFFE700980190F6
:101B5000FFE7FFE7009801300090E8E70198049064
:101B6000FFE7049805B0704780B586B004900498EC
:101B70000078072840F0CD80FFE79FED6A0A06F065
:101B8000C3FC42F22C71C2F200010220087049F637
:101B90001D30C0F6000007F0AFFC41F6AD60C2F2A8
:101BA00000008078122819D0FFE741F6AD60C2F23C
:101BB00000008078142811D0FFE741F6AD60C2F232
:101BC00000008078182809D0FFE741F6AD60C2F226
:101BD000000080781A2840F08F80FFE740F2302024
:101BE000C2F20000007840F23221C2F2000109780E
:101BF000884227D0FFE740F23020C2F20000007890
:101C000040F23221C2F20001497888421AD0FFE73F
:101C100040F23020C2F20000407840F23221C2F29D
:101C20000001097888420DD0FFE740F23020C2F26F
:101C30000000407840F23221C2F200014978884227
:101C400012D1FFE740F23221C2F200010A784B784C
:101C5000887891F803C06946C1F804C0086005207F
:101C6000032106F0C9FB46E040F23020C2F200003A
:101C7000007840F23221C2F200018978884227D0F0
:101C8000FFE740F23020C2F20000007840F232213B
:101C9000C2F20001C97888421AD0FFE740F2302032
:101CA000C2F20000407840F23221C2F2000189788D
:101CB00088420DD0FFE740F23020C2F200004078A9
:101CC00040F23221C2F20001C978884212D1FFE706
:101CD00040F23221C2F200010A784B78887891F8FC
:101CE00003C06946C1F804C008600520042106F05D
:101CF00083FBFFE7FFE7FFE740F60000C4F20200C6
:101D000001220392114601F0ABF903988DF81700F8
:101D100003E000208DF81700FFE79DF8170006B0DC
:101D200080BD00BF00003E4380B582B0019040F608
:101D30000000C4F202004FF4005101F079F901995A
:101D4000087041F20000C4F202000090402101F04E
:101D50006FF901460098019A5170202101F068F94D
:101D600001460098019A9170102101F061F9014635
:101D70000098019AD170082101F05AF901460098A3
:101D8000019A1171042101F053F901460098019A5A
:101D90005171022101F04CF901460098019A9171AC
:101DA000012101F045F90199C87102B080BD000020
:101DB00080B586B00020049001210391029041F685
:101DC000F860C2F200000190FFF7AEFF0198082111
:101DD0000AF0A4F802900298002840F0A180FFE7E2
:101DE00041F6F860C2F20000082109F067FA002805
:101DF00077D0FFE741F6F860C2F2000000780128D2
:101E000006D1FFE70399049800EB81000490FFE7F7
:101E100041F6F860C2F200004078012807D1FFE7E0
:101E2000039800EB4001049808440490FFE741F652
:101E3000F860C2F200008078012806D1FFE703991C
:101E4000049800EB41000490FFE741F6F860C2F20D
:101E50000000C078012805D1FFE7039904980844E1
:101E60000490FFE741F6F860C2F200000079012813
:101E700005D1FFE703990498401A0490FFE741F663
:101E8000F860C2F200004079012806D1FFE703990B
:101E90000498A0EB41000490FFE741F6F860C2F21D
:101EA00000008079012807D1FFE7039800EB40018B
:101EB0000498401A0490FFE741F6F860C2F200006F
:101EC000C079012806D1FFE703990498A0EB8100AF
:101ED0000490FFE740F23821C2F2000100200870B0
:101EE0001DE040F23720C2F200000178013101709C
:101EF0000078032812DBFFE705208DF817009DF816
:101F0000171040F21C20C2F200000AF0C3F840F2A1
:101F10003721C2F2000100200870FFE7FFE73DE033
:101F2000029801281AD1FFE740F23820C2F20000DF
:101F3000007890B9FFE703208DF817009DF817107F
:101F400040F21C20C2F200000AF0A4F840F238214E
:101F5000C2F2000101200870FFE71EE0029802288B
:101F60001AD1FFE740F23820C2F20000007890B9A1
:101F7000FFE704208DF817009DF8171040F21C2091
:101F8000C2F200000AF086F840F23821C2F20001E5
:101F900001200870FFE7FFE7FFE7FFE7049806B0BE
:101FA00080BD000085B00390029100200190FFE702
:101FB000039890F83C00012804D1FFE702208DF837
:101FC0001300F7E00399012081F83C00FFE7FFE7E9
:101FD000029800680A281CD3FFE70298008800EBEB
:101FE0004000A0F11E01072000FA01F203980168E9
:101FF000C8689043C86002998868098801EB41016C
:102000001E3900FA01F203980168C8681043C860DD
:1020100018E00298008800EB4001072000FA01F266
:1020200003980168086990430861029988680988E3
:1020300001EB410100FA01F20398016808691043BD
:102040000861FFE70298406806281BD8FFE702985E
:10205000406800EB8000411F1F2000FA01F2039846
:102060000168486B9043486302990888496801EB0E
:102070008101053900FA01F203980168486B1043A9
:1020800048633DE0029840680C281CD8FFE702989E
:10209000406800EB8000A0F123011F2000FA01F24C
:1020A00003980168086B904308630299088849689F
:1020B00001EB8101233900FA01F203980168086BF2
:1020C000104308631BE00298406800EB8000A0F119
:1020D00041011F2000FA01F203980168C86A904389
:1020E000C86202990888496801EB8101413900FA08
:1020F00001F203980168C86A1043C862FFE7FFE76E
:1021000042F20030C4F2010000900398006842F2ED
:102110000001C4F2010188420BD1FFE70298006878
:10212000122806D1FFE70099486840F48000486013
:10213000FFE70398006842F20001C4F201018842FF
:102140002ED1FFE702980068102805D0FFE702981B
:102150000068112824D1FFE70099486840F4000086
:10216000486002980068102819D1FFE740F20C007F
:10217000C2F2000000684DF68361C4F21B31A0FB7F
:102180000110800C00EB800040000190FFE70198F7
:1021900020B1FFE7019801380190F8E7FFE7FFE77A
:1021A000FFE70399002081F83C00FFE700208DF84D
:1021B0001300FFE79DF8130005B0704781B0009051
:1021C00001B0704781B0009001B0704781B00090BD
:1021D00001B0704780B584B0029000208DF80700F0
:1021E000029820B9FFE701208DF80F0042E0029825
:1021F000806A0121C0F60071884201D0FFE7FFE745
:102200000298006C50B9FFE7029800F037F8029985
:1022100000204864029981F83C00FFE70298006CB6
:10222000C006002817D4FFE70298006C40F00200B7
:1022300020F48850029908640298FFF7B9F90299CE
:10224000002048640298006C40F0010020F0020079
:102250000299086403E001208DF80700FFE7FFE71B
:102260000299002081F83C00FFE79DF807008DF8F7
:102270000F00FFE79DF80F0004B080BD80B58AB065
:102280000990002008900790069005900490099806
:10229000006842F20001C4F2010188425DD1FFE70B
:1022A000FFE70020039043F64400C4F202000168F7
:1022B00041F480710160006800F48070039003981D
:1022C000FFE7FFE70020029043F63000C4F202006F
:1022D000016841F001010160006800F00100029016
:1022E0000298FFE70420049003200590002000904E
:1022F00006900020C4F2020004A900F0BDFC009981
:1023000041F6E470C2F20000019046F21042C4F2BD
:102310000202026041608160C1604FF4806202612C
:102320004FF4006242614FF4005282614FF48072B8
:10233000C2610162416200F063FB18B1FFE7FFF781
:10234000DFFBFFE7FFE7099841F6E471C2F2000105
:10235000816309988863FFE7FFE70AB080BD00004A
:1023600080B588B0069005910492002003908DF806
:102370000700FFE7069890F83C00012804D1FFE72A
:1023800002208DF81F000EE10699012081F83C0023
:10239000FFE7FFE7069800688068C007F0B9FFE72D
:1023A00006980168886840F00100886040F20C00DF
:1023B000C2F2000000684DF68361C4F21B31A0FB3D
:1023C0000110800C00EB40000390FFE7039820B160
:1023D000FFE7039801380390F8E7FFE706980068E5
:1023E0008068C005002807D5FFE70698016888685F
:1023F00020F480708860FFE7069800688068C00756
:10240000002800F0C080FFE70698006C40F4807060
:1024100040F20161884306990864069800684068A4
:102420004005002809D5FFE70698006C40F480506D
:1024300020F4005006990864FFE70698006CC00479
:10244000002806D5FFE70699486C20F0060048648E
:1024500003E0069900204864FFE7FFE706990020A3
:1024600081F83C00FFE742F20030C4F20100029024
:102470000698816B41F2BD40C0F60000C863069823
:10248000816B41F29950C0F6000008640698816B98
:1024900041F27150C0F60000C864069801686FF000
:1024A0002200086006980168486840F08060486033
:1024B00006980168886840F4807088600698016812
:1024C000806B4C31059A049B00F052FB8DF807009D
:1024D00002984068C006E8BBFFE70698006842F231
:1024E0000001C4F20101884224D0FFE70698006889
:1024F00042F20011C4F20101884208D1FFE742F222
:102500000430C4F201000068C00698B1FFE70698E5
:10251000006842F20021C4F20101884219D1FFE7AC
:1025200042F20430C4F20100006800F01F000F28DE
:102530000FD8FFE706980068806810F0405F07D169
:10254000FFE706980168886840F080408860FFE7F0
:10255000FFE717E00698006842F20001C4F20101AB
:1025600088420ED1FFE706980068806810F0405F4F
:1025700007D1FFE706980168886840F080408860CE
:10258000FFE7FFE70AE00699086C40F010000864D6
:102590000699486C40F001004864FFE79DF8070089
:1025A0008DF81F00FFE79DF81F0008B080BD0000F8
:1025B00080B584B002900298806D019000F068FDB3
:1025C0000090029890F8350002280DD0FFE702999C
:1025D00080204865FFE70299002081F83400FFE77A
:1025E00001208DF80F0055E002980168086820F07E
:1025F0001600086002980168486920F08000486170
:102600000298006C20B9FFE70298806C38B1FFE7B0
:1026100002980168086820F008000860FFE7029847
:102620000168086820F001000860FFE70298006870
:102630000068C007C8B1FFE700F02AFD0099401A02
:10264000062811D3FFE7029920204865029903204C
:1026500081F83500FFE70299002081F83400FFE798
:1026600003208DF80F0015E0E0E70298C16D3F20D0
:102670008840019988600299012081F83500FFE7C0
:102680000299002081F83400FFE7FFE700208DF871
:102690000F00FFE79DF80F0004B080BD82B00090EE
:1026A000009890F83500022807D0FFE700998020B5
:1026B000486501208DF807000EE00099052081F89B
:1026C000350000980168086820F001000860FFE705
:1026D00000208DF80700FFE79DF8070002B0704763
:1026E00080B586B005900020039040F20C00C2F245
:1026F0000000006848F2B511C1F64E31A0FB011090
:10270000800A02900598806D0190019800680490FD
:1027100004980599C96DC840000700281AD5FFE73D
:102720000598006800684007002812D5FFE7059863
:102730000168086820F0040008600598C16D082051
:102740008840019988600599486D40F0010048650E
:10275000FFE7FFE704980599C96DC840C007A0B11D
:10276000FFE7059800684069000600280CD5FFE7E0
:102770000598C16D01208840019988600599486DD0
:1027800040F002004865FFE7FFE704980599C96D2E
:10279000C8404007002814D5FFE705980068006886
:1027A000800700280CD5FFE70598C16D04208840FC
:1027B000019988600599486D40F004004865FFE77D
:1027C000FFE704980599C96DC840C006002847D5A1
:1027D000FFE7059800680068000700283FD5FFE77D
:1027E0000598C16D1020884001998860059800689F
:1027F0000068400300281AD5FFE7059800680068C4
:102800000003002809D4FFE70598006C20B1FFE71A
:102810000598016C8847FFE708E00598806C20B1B7
:10282000FFE70598816C8847FFE7FFE716E005980A
:1028300000680068C005002807D4FFE70598016814
:10284000086820F008000860FFE70598006C20B1D8
:10285000FFE70598016C8847FFE7FFE7FFE7FFE721
:1028600004980599C96DC8408006002840F18D8004
:10287000FFE7059800680068C006002840F18480E2
:10288000FFE70598C16D2020884001998860059870
:1028900090F83500052834D1FFE7059801680868ED
:1028A00020F01600086005980168486920F0800053
:1028B00048610598006C20B9FFE70598806C38B135
:1028C000FFE705980168086820F008000860FFE746
:1028D0000598C16D3F2088400199886005990120C5
:1028E00081F83500FFE70599002081F83400FFE703
:1028F0000598006D20B1FFE70598016D8847FFE757
:102900007BE0059800680068400300281AD5FFE7BF
:102910000598006800680003002809D4FFE70598BF
:10292000406C20B1FFE70598416C8847FFE708E05D
:102930000598C06B20B1FFE70598C16B8847FFE79A
:10294000FFE720E0059800680068C005002811D462
:10295000FFE705980168086820F0100008600599F5
:10296000012081F83500FFE70599002081F8340047
:10297000FFE7FFE70598C06B20B1FFE70598C16B43
:102980008847FFE7FFE7FFE7FFE70598406DA0B343
:10299000FFE70598406DC00730B3FFE705990520B4
:1029A00081F8350005980168086820F0010008608A
:1029B000FFE70398013003900299884201D9FFE7AD
:1029C00007E0FFE7059800680068C0070028F0D11D
:1029D000FFE70599012081F83500FFE70599002000
:1029E00081F83400FFE7FFE70598C06C20B1FFE7EE
:1029F0000598C16C8847FFE7FFE706B080BD00007F
:102A000080B586B004900020039000F041FB029056
:102A1000049820B9FFE701208DF81700A3E004987F
:102A2000406A08B1FFE7FFE70499022081F835000A
:102A3000FFE70499002081F83400FFE7049801685B
:102A4000086820F001000860FFE70498006800684B
:102A5000C00790B1FFE700F01BFB0299401A06285F
:102A60000AD3FFE70499202048650499032081F8E0
:102A700035008DF8170076E0E7E7049800680068F5
:102A80000390039848F23F01CFF2100108400390F1
:102A9000049900914868D1F808C0CB680A6940EAF7
:102AA0000C00184310434A6910438A691043CA69ED
:102AB0001043096A01430398084303900498406A4D
:102AC000042808D1FFE70499C86A096B01430398F9
:102AD00008430390FFE70398049909680860049885
:102AE000006840690390039820F007000390049861
:102AF000416A0398084303900498406A04281AD155
:102B0000FFE70498816A0398084303900498C06A19
:102B100080B1FFE70498FEF729FF50B1FFE7049961
:102B2000402048650499012081F835008DF8170090
:102B300019E0FFE7FFE703980499096848610498E2
:102B4000FEF7E8FE01900498C16D3F20884001998E
:102B50008860049900204865049A012182F83510A4
:102B60008DF81700FFE79DF8170006B080BD000044
:102B700080B588B0069005910492039300208DF8EB
:102B80000B000698806D0190FFE7069890F83400DE
:102B9000012804D1FFE702208DF81F0045E00699C7
:102BA000012081F83400FFE7FFE7069890F8350030
:102BB00001282BD1FFE70699022081F835000699FC
:102BC0000020486506980599049A039BFEF746FF86
:102BD0000698C16D3F208840019988600698016879
:102BE000086840F0160008600698006C38B1FFE7EE
:102BF00006980168086840F008000860FFE706983A
:102C00000168086840F00100086009E0FFE70699E4
:102C1000002081F83400FFE702208DF80B00FFE769
:102C20009DF80B008DF81F00FFE79DF81F0008B00E
:102C300080BD000080B584B0039000F029FA0290B6
:102C4000039801900198013048B1FFE740F2042059
:102C5000C2F200000178019808440190FFE7FFE705
:102C600000F016FA0299401A0199884201D2FFE752
:102C7000F6E704B080BD00008EB00D900C910020EE
:102C80000A90099008900B90FFE70B980F2800F22C
:102C9000CC81FFE70B99012088400A900C980068CE
:102CA0000A990840099009980A99884240F0B88129
:102CB000FFE70C98406800F00300012807D0FFE709
:102CC0000C98406800F0030002282FD1FFE70D9810
:102CD000806808900B984100032000FA01F10898E1
:102CE000884308900C98C0680B99490000FA01F1DC
:102CF00008980843089008980D9988600D984068D6
:102D000008900B99012000FA01F108988843089077
:102D10000C984068C0F300100B9900FA01F1089874
:102D20000843089008980D994860FFE70C984068A0
:102D300000F00300032818D0FFE70D98C068089042
:102D40000B984100032000FA01F10898884308908D
:102D50000C9880680B99490000FA01F10898084323
:102D6000089008980D99C860FFE70C98406800F03B
:102D70000300022826D1FFE70D980B996FF003029C
:102D800002EA51010844006A08900B9800F007001D
:102D900081000F2000FA01F10898884308900C98F0
:102DA00000690B9901F00701890000FA01F1089808
:102DB0000843089008980D990B9B02EA53021144AE
:102DC0000862FFE70D98006808900B984100032007
:102DD00000FA01F10898884308900C98406800F0C8
:102DE00003000B99490000FA01F108980843089084
:102DF00008980D9908600C9880798007002800F0E9
:102E00000E81FFE7FFE70020079043F64400C4F27D
:102E10000200016841F480410160006800F48040D4
:102E200007900798FFE70B9820F0030043F608018E
:102E3000C4F20101405808900B9800F00300810093
:102E40000F2000FA01F10898884308900D9800219E
:102E5000C4F20201884203D1FFE7002006905EE041
:102E60000D9840F20041C4F20201884203D1FFE70D
:102E70000120059050E00D9840F60001C4F20201D7
:102E8000884203D1FFE70220049042E00D9840F60B
:102E90000041C4F20201884203D1FFE703200390FE
:102EA00034E00D9841F20001C4F20201884203D1DE
:102EB000FFE70420029026E00D9841F20041C4F2A1
:102EC0000201884203D1FFE70520019018E00D9828
:102ED00041F60001C4F20201884203D1FFE7062057
:102EE00000900AE00D9941F60042C4F20202082067
:102EF000914208BF07200090FFE700980190FFE78C
:102F000001980290FFE702980390FFE7039804906E
:102F1000FFE704980590FFE705980690FFE70698FD
:102F2000C0B20B9901F00301890000FA01F1089881
:102F30000843089008980B9921F0030143F6080212
:102F4000C4F20102885043F60840C4F20100006850
:102F5000089009990898884308900C988079C006D1
:102F6000002805D5FFE70999089808430890FFE76E
:102F7000089843F60841C4F20101086043F60C408A
:102F8000C4F20100006808900999089888430890E5
:102F90000C9880798006002805D5FFE709990898E4
:102FA00008430890FFE7089843F60C41C4F201017A
:102FB000086043F60440C4F20100006808900999D3
:102FC0000898884308900C9880798007002805D5D8
:102FD000FFE70999089808430890FFE7089843F627
:102FE0000441C4F20101086043F60040C4F201004C
:102FF0000068089009990898884308900C9880798F
:10300000C00728B1FFE70999089808430890FFE72F
:10301000089843F60041C4F201010860FFE7FFE7AA
:10302000FFE70B9801300B902FE60EB070470000C1
:1030300082B00190ADF8021001980069BDF802104D
:10304000084204D0FFE701208DF8010003E00020D2
:103050008DF80100FFE79DF8010002B07047000005
:1030600082B00190ADF802108DF801209DF80100AA
:1030700028B1FFE7BDF802000199886105E0BDF8BD
:103080000200000401998861FFE702B07047000068
:1030900042F64C00C2F200000068704740F2042083
:1030A000C2F20000027842F64C01C2F20001086848
:1030B000104408607047000080B543F60041C4F238
:1030C0000201086840F400700860086840F48060FD
:1030D0000860086840F480700860032000F08AF8F7
:1030E0000F2000F005F800F03BF8002080BD000044
:1030F00080B582B0009040F20C00C2F2000000687F
:1031000040F20421C2F200010A784FF47A71B1FB57
:10311000F2F1B0FBF1F001F0FBF920B1FFE7012083
:103120008DF8070018E000980F280DD8FFE70099E8
:103130004FF0FF30002200F043F8009840F20821E1
:10314000C2F20001086003E001208DF8070003E0EF
:1031500000208DF80700FFE79DF8070002B080BD52
:1031600082B0FFE70020019043F64400C4F2020061
:10317000016841F480410160006800F480400190E2
:103180000198FFE7FFE70020009043F64000C4F2FB
:103190000200016841F080510160006800F0805039
:1031A00000900098FFE702B07047000080B582B041
:1031B0008DF807009DF9070007F03EFB02B080BDC7
:1031C00080B586B08DF8170004910392002002901C
:1031D00007F04AFB02909DF91700019002980499AC
:1031E000039A04F07BFC0146019807F045FB06B00A
:1031F00080BD000080B582B00190019807F05EFBB1
:1032000002B080BD80B584B002900191029820B9CF
:10321000FFE701208DF80F0021E1019843F60041FE
:10322000C4F20201096801F00701884212D9FFE7E0
:10323000019943F60040C4F202000170006800F0FA
:1032400007000199884204D0FFE701208DF80F00A4
:1032500005E1FFE702980078800700282AD5FFE7FC
:10326000029800784007002809D5FFE743F60801D7
:10327000C4F20201086840F4E0500860FFE70298D9
:1032800000780007002809D5FFE743F60801C4F2DB
:103290000201086840F460400860FFE743F6080157
:1032A000C4F20201086820F0F000029A926810430C
:1032B0000860FFE702980078C00700286ED0FFE79B
:1032C00002984068012811D1FFE743F60000C4F2DC
:1032D0000200006800F400310020B0EB514F04D12F
:1032E000FFE701208DF80F00B9E02CE0029840685C
:1032F000022805D0FFE702984068032811D1FFE7B4
:1033000043F60000C4F20200006800F000710020E3
:10331000B0EB516F04D1FFE701208DF80F009EE064
:1033200010E043F60000C4F20200006800F0020161
:103330000020B0EB510F04D1FFE701208DF80F0002
:103340008DE0FFE7FFE743F60801C4F202010868D9
:1033500020F00300029A526810430860FFF798FEBD
:103360000090FFE743F60800C4F20200006800F096
:103370000C0002994968B0EB810F0ED0FFE7FFF710
:1033800087FE0099401A41F28931884204D3FFE751
:1033900003208DF80F0062E0E4E7FFE7019843F6B1
:1033A0000041C4F20201096801F00701884212D20B
:1033B000FFE7019943F60040C4F202000170006883
:1033C00000F007000199884204D0FFE701208DF842
:1033D0000F0044E0FFE702980078400700280CD572
:1033E000FFE743F60801C4F20201086820F4E05048
:1033F000029AD26810430860FFE70298007800073D
:1034000000280DD5FFE743F60801C4F20201086861
:1034100020F46040029A126940EAC2000860FFE7A7
:1034200000F04CF843F60801C4F202010968C9B281
:103430000A094DF21071C0F60001895CC84040F2E3
:103440000C01C2F20001086040F20820C2F2000044
:103450000068FFF74DFE00208DF80F00FFE79DF894
:103460000F0004B080BD000040F20C00C2F200006A
:103470000068704780B5FFF7F7FF43F60801C4F214
:1034800002010968C1F382224DF22071C0F60001E9
:10349000895CC84080BD000080B5FFF7E5FF43F6BA
:1034A0000801C4F20201096889B24A0B4DF2207189
:1034B000C0F60001895CC84080BD000080B586B0C0
:1034C0000020059004900390029043F60800C4F297
:1034D0000200006800F00C000146019140B1FFE7D6
:1034E000019804280AD0FFE7019808280CD04FE083
:1034F00042F20040C0F2F40002904FE041F200209E
:10350000C0F27A00029049E043F60400C4F20200DF
:10351000016801F03F01059100684002002813D5C1
:10352000FFE743F60400C4F202000068C0F388100D
:1035300041F20021C0F27A01A0FB0101059A0023AB
:10354000FCF73EFE049012E043F60400C4F20200D1
:103550000068C0F3881042F20041C0F2F401A0FB01
:103560000101059A0023FCF72BFE0490FFE743F6C8
:103570000400C4F20200006800F44031022000EBB5
:10358000D130039004980399B0FBF1F0029005E06C
:1035900042F20040C0F2F4000290FFE7029806B049
:1035A00080BD000080B586B00490049820B9FFE784
:1035B00001208DF8170050E304980078C007002818
:1035C00000F0A580FFE743F60800C4F2020000689F
:1035D00000F00C00042813D0FFE743F60800C4F203
:1035E0000200006800F00C0008281ED1FFE743F637
:1035F0000400C4F2020000684002002815D5FFE76D
:1036000043F60000C4F20200006800F4003100201C
:10361000B0EB514F08D0FFE70498406820B9FFE7AE
:1036200001208DF8170018E370E0FFE70498406868
:10363000B0F5803F09D1FFE743F60001C4F2020173
:10364000086840F48030086020E004984068B0F5D5
:10365000A02F0DD1FFE743F60001C4F20201086874
:1036600040F480200860086840F4803008600CE076
:1036700043F60001C4F20201086820F480300860BB
:10368000086820F480200860FFE7FFE7FFE7049860
:103690004068E8B1FFE7FFF7FBFC0390FFE743F664
:1036A0000000C4F20200006800F400310020B0EB1A
:1036B000514F0CD1FFE7FFF7EBFC0399401A652847
:1036C00004D3FFE703208DF81700C6E2E7E71CE00C
:1036D000FFF7DEFC0390FFE743F60000C4F20200B0
:1036E000006800F400310020B0EB514F0CD0FFE730
:1036F000FFF7CEFC0399401A652804D3FFE70320A7
:103700008DF81700A9E2E7E7FFE7FFE7FFE7049876
:1037100000788007002840F19680FFE743F6080014
:10372000C4F20200006810F00C0F13D0FFE743F65C
:103730000800C4F20200006800F00C0008282CD138
:10374000FFE743F60400C4F20200006840020028CC
:1037500023D4FFE743F60000C4F20200006800F043
:1037600002010020B0EB510F09D0FFE70498C068B8
:10377000012804D0FFE701208DF817006DE243F621
:103780000001C4F20201086820F0F800049A1269EE
:1037900040EAC2000860FFE754E00498C06870B3D4
:1037A000FFE70021C4F2472101200860FFF770FC09
:1037B0000390FFE743F60000C4F20200006800F047
:1037C00002010020B0EB510F0CD1FFE7FFF760FCC6
:1037D0000399401A032804D3FFE703208DF817004C
:1037E0003BE2E7E743F60001C4F20201086820F07B
:1037F000F800049A126940EAC200086021E0002142
:10380000C4F2472100200860FFF742FC0390FFE765
:1038100043F60000C4F20200006800F0020100203C
:10382000B0EB510F0CD0FFE7FFF732FC0399401AC1
:10383000032804D3FFE703208DF817000DE2E7E724
:10384000FFE7FFE7FFE704980078000700284BD563
:10385000FFE70498406918B3FFE740F68061C4F2BF
:10386000472101200860FFF713FC0390FFE743F6B0
:103870007400C4F20200006800F002010020B0EB06
:10388000510F0CD1FFE7FFF703FC0399401A0328FF
:1038900004D3FFE703208DF81700DEE1E7E722E01D
:1038A00040F68061C4F2472100200860FFF7F0FB7A
:1038B0000390FFE743F67400C4F20200006800F0D2
:1038C00002010020B0EB510F0CD0FFE7FFF7E0FB47
:1038D0000399401A032804D3FFE703208DF817004B
:1038E000BBE1E7E7FFE7FFE704980078400700281F
:1038F00040F1CE80FFE700208DF8070043F640003E
:10390000C4F202000068C000002815D4FFE7FFE7FA
:103910000020009043F64000C4F20200016841F02C
:1039200080510160006800F0805000900098FFE72F
:1039300001208DF80700FFE747F20000C4F2000005
:103940000068C005002822D4FFE747F20001C4F256
:103950000001086840F480700860FFF799FB03904D
:10396000FFE747F20000C4F200000068C00500282D
:103970000CD4FFE7FFF78CFB0399401A032804D30C
:10398000FFE703208DF8170067E1EAE7FFE7FFE7AD
:1039900004988068012809D1FFE743F67001C4F25A
:1039A0000201086840F0010008601FE00498806888
:1039B00005280DD1FFE743F67001C4F20201086843
:1039C00040F004000860086840F0010008600CE066
:1039D00043F67001C4F20201086820F0010008609B
:1039E000086820F004000860FFE7FFE7FFE704989D
:1039F0008068F8B1FFE7FFF74BFB0390FFE743F662
:103A00007000C4F20200006800F002010020B0EB78
:103A1000510F0ED1FFE7FFF73BFB0399401A41F22C
:103A20008931884204D3FFE703208DF8170014E1A1
:103A3000E5E71EE0FFF72CFB0390FFE743F670007D
:103A4000C4F20200006800F002010020B0EB510F48
:103A50000ED0FFE7FFF71CFB0399401A41F28931B2
:103A6000884204D3FFE703208DF81700F5E0E5E76F
:103A7000FFE79DF80700012809D1FFE743F6400161
:103A8000C4F20201086820F080500860FFE7FFE7F9
:103A900004988069002800F0DC80FFE743F6080006
:103AA000C4F20200006800F00C00082800F08580D5
:103AB000FFE70498806902285CD1FFE76021C4F227
:103AC000472100200860FFF7E3FA0390FFE743F681
:103AD0000000C4F20200006800F000710020B0EBAA
:103AE000516F0CD0FFE7FFF7D3FA0399401A032870
:103AF00004D3FFE703208DF81700AEE0E7E7049951
:103B0000C869D1F820C04B6A8A6A40EA0C0040EAD2
:103B10008310D2034FF6FF739A43A2F5803210430D
:103B2000C96A40EA016043F60401C4F20201086078
:103B30006021C4F2472101200860FFF7A9FA039031
:103B4000FFE743F60000C4F20200006800F00071D5
:103B50000020B0EB516F0CD1FFE7FFF799FA039902
:103B6000401A032804D3FFE703208DF8170074E000
:103B7000E7E721E06021C4F2472100200860FFF759
:103B800087FA0390FFE743F60000C4F202000068E2
:103B900000F000710020B0EB516F0CD0FFE7FFF791
:103BA00077FA0399401A032804D3FFE703208DF81E
:103BB000170052E0E7E7FFE74AE004988069012830
:103BC00004D1FFE701208DF8170046E043F604001A
:103BD000C4F202000068029004988069012831D084
:103BE000FFE7029800F480000499C969884229D14E
:103BF000FFE7029800F03F000499096A884221D14A
:103C0000FFE7029847F6C07108400499496AB0EB93
:103C1000811F17D1FFE7029800F440300499896AA8
:103C2000C9034FF6FF729143A1F58031884209D153
:103C3000FFE7029800F070600499C96AB0EB016F69
:103C400004D0FFE701208DF8170006E0FFE7FFE74B
:103C5000FFE700208DF81700FFE79DF8170006B07A
:103C600080BD000080B584B00290029820B9FFE7C3
:103C700001208DF80F0071E00298406A60B9FFE7FB
:103C800002984068B0F5827F01D1FFE703E0029916
:103C90000020C861FFE705E0029900200861029951
:103CA0004861FFE7029900208862029890F851006D
:103CB00040B9FFE70299002081F85000029800F017
:103CC00051F8FFE70299022081F85100029801683B
:103CD000086820F040000860029A0192116850685C
:103CE000D2F808C0D36800F482700CF4044C60442D
:103CF00003F400631844136903F002031844536982
:103D000003F001031844936903F400731844D36962
:103D100003F038031844136A03F080031843926ACF
:103D200002F4005210430860029A508B00F0040025
:103D30001168526A02F0100210444860029801684B
:103D4000C86920F40060C861029900204865029AA1
:103D5000012182F851108DF80F00FFE79DF80F0048
:103D600004B080BD80B590B00F9000200E900D90F3
:103D70000C900B900A900F98006843F20001C4F277
:103D80000101884234D1FFE7FFE70020099043F6A4
:103D90004400C4F20200016841F4805101600068EF
:103DA00000F4805009900998FFE7FFE70020089091
:103DB00043F63000C4F20200016841F002010160E4
:103DC000006800F0020008900898FFE728200A9099
:103DD00002200B9001200C9003200D9005200E90E6
:103DE00040F20040C4F202000AA9FEF745FF68E075
:103DF0000F98006843F60001C4F2000188425FD1C9
:103E0000FFE7FFE70020079043F64000C4F20200FE
:103E1000016841F480410160006800F4804007902F
:103E20000798FFE7FFE70020069043F63000C4F252
:103E30000200016841F004010160006800F0040024
:103E400006900698FFE7FFE70020059043F6300054
:103E5000C4F20200016841F002010160006800F054
:103E6000020005900598FFE70C200A9002200090C0
:103E70000B90002001900C90032002900D900520E3
:103E800003900E9040F60000C4F202000AA90491CB
:103E9000FEF7F2FEDDF800C0019B029A0398049938
:103EA0004FF4806ECDF828E0CDF82CC00C930D9225
:103EB0000E9040F20040C4F20200FEF7DDFEFFE784
:103EC000FFE710B080BD000080B588B00690059176
:103ED000ADF812200393FFF7DBF80290BDF8120053
:103EE000ADF80600069890F85100012804D0FFE7CD
:103EF00002208DF81F0034E1059820B1FFE7BDF8DE
:103F0000120020B9FFE701208DF81F0029E1FFE72B
:103F1000069890F85000012804D1FFE702208DF8A0
:103F20001F001EE10699012081F85000FFE7FFE71E
:103F30000699032081F851000699002048650599EB
:103F4000069A1163BDF81210069A9186BDF81210F8
:103F5000069AD18606998863069988870699C88744
:103F6000069948640699086406988068B0F5004F81
:103F70000DD1FFE706980168086820F0400008604E
:103F800006980168086840F480400860FFE70698DA
:103F90000068006800F04000402807D0FFE706985E
:103FA0000168086840F040000860FFE70698C068B4
:103FB000B0F5006F51D1FFE70698406828B1FFE7E0
:103FC000BDF8060001280ED1FFE706980168006BD6
:103FD0000088C8600699086B023008630699C88E8D
:103FE0000138C886FFE7FFE70698C08EA0B3FFE759
:103FF000069800688068800700280ED5FFE70698BD
:104000000168006B0088C8600699086B023008637D
:104010000699C88E0138C8861DE0FFF739F8029965
:10402000401A0399884204D3FFE70398013018B976
:10403000FFE7039870B9FFE70699012081F8510066
:10404000FFE70699002081F85000FFE703208DF874
:104050001F0086E0FFE7C7E750E00698406828B1F8
:10406000FFE7BDF8060001280ED1FFE706980168BA
:10407000006B007808730699086B01300863069995
:10408000C88E0138C886FFE7FFE70698C08EA0B348
:10409000FFE7069800688068800700280ED5FFE7D4
:1040A00006980168006B007808730699086B013068
:1040B00008630699C88E0138C8861DE0FEF7E8FF40
:1040C0000299401A0399884204D3FFE7039801300C
:1040D00018B9FFE7039870B9FFE70699012081F846
:1040E0005100FFE70699002081F85000FFE7032008
:1040F0008DF81F0035E0FFE7C7E7FFE70698039953
:10410000029A04F029F820B1FFE7069920204865BB
:10411000FFE70698806870B9FFE7FFE7002000908E
:1041200006980068C0680090069800688068009053
:104130000098FFE7FFE70699012081F85100FFE7AB
:104140000699002081F85000FFE70698406D20B1E5
:10415000FFE701208DF81F0003E000208DF81F000D
:10416000FFE79DF81F0008B080BD000080B58CB04F
:10417000DDF838C00A9009910892ADF81E30012090
:104180000390FEF785FF04900A9890F851008DF88F
:1041900017000A9840680690BDF81E00ADF81C0094
:1041A0009DF81700012812D0FFE70698B0F5827F2E
:1041B00009D1FFE70A98806828B9FFE79DF8170042
:1041C000042804D0FFE702208DF82F009BE1099816
:1041D00038B1FFE7089820B1FFE7BDF81E0020B90D
:1041E000FFE701208DF82F008DE1FFE70A9890F896
:1041F0005000012804D1FFE702208DF82F0082E152
:104200000A99012081F85000FFE7FFE70A9890F82B
:104210005100042805D0FFE70A99052081F85100D4
:10422000FFE70A990020486508990A9A9163BDF84A
:104230001E100A9AD187BDF81E100A9A9187099913
:104240000A9A1163BDF81E100A9AD186BDF81E1095
:104250000A9A91860A9908640A9948640A9800683B
:10426000006800F04000402807D0FFE70A98016886
:10427000086840F040000860FFE70A98C068B0F5A1
:10428000006F40F08180FFE70A98406828B1FFE79F
:10429000BDF81C0001280ED1FFE70A980168006BE9
:1042A0000088C8600A99086B023008630A99C88EB2
:1042B0000138C886FFE7FFE70A98C18E0120019008
:1042C00039B9FFE70A98C08F002818BF0120019074
:1042D000FFE70198C007002855D0FFE70A9800685B
:1042E00080688007002818D5FFE70A98C08EA0B123
:1042F000FFE70398012810D1FFE70A980168006BD7
:104300000088C8600A99086B023008630A99C88E51
:104310000138C88600200390FFE70A98006880688B
:10432000C007A8B1FFE70A98C08F88B1FFE70A98D5
:104330000068C0680A99896B08800A99886B023006
:1043400088630A99C88F0138C88701200390FFE766
:10435000FEF79EFE0499401A0E99884212D3FFE799
:104360000E98013070B1FFE70A99012081F85100E1
:10437000FFE70A99002081F85000FFE703208DF83D
:104380002F00C0E098E782E00A98406828B1FFE774
:10439000BDF81C0001280ED1FFE70A980168006BE8
:1043A000007808730A99086B013008630A99C88E6F
:1043B0000138C886FFE7FFE70A98C18E0120009008
:1043C00039B9FFE70A98C08F002818BF0120009074
:1043D000FFE70098C007002858D0FFE70A98006858
:1043E00080688007002818D5FFE70A98C08EA0B122
:1043F000FFE70398012810D1FFE70A980168006BD6
:10440000007808730A99086B013008630A99C88E0E
:104410000138C88600200390FFE70A98006880688A
:10442000C007A8B1FFE70A98C08F88B1FFE70A98D4
:104430000068C0680A99896B08700A99886B013016
:1044400088630A99C88F0138C88701200390FFE765
:10445000FEF71EFE0499401A0E99884204D3FFE726
:104460000E98013018B9FFE70E9870B9FFE70A9966
:10447000012081F85100FFE70A99002081F85000DF
:10448000FFE703208DF82F003DE095E7FFE70A984E
:104490000E99049A03F060FE68B1FFE70A992020A4
:1044A0004865FFE70A99002081F85000FFE70120E6
:1044B0008DF82F0027E00A98806870B9FFE7FFE7C2
:1044C000002002900A980068C06802900A9800686C
:1044D000806802900298FFE7FFE70A99012081F8BF
:1044E0005100FFE70A99002081F85000FFE70A9881
:1044F000406D20B1FFE701208DF82F0003E0002080
:104500008DF82F00FFE79DF82F000CB080BD000054
:1045100080B582B00190019804F0E6F802B080BD49
:1045200081B0009001B0704781B0009001B0704739
:1045300085B003900291FFE7039890F83C000128B2
:1045400004D1FFE702208DF813007EE003990120DB
:1045500081F83C00FFE7FFE70399022081F83D0066
:104560000398006840680190039800688068009094
:10457000019820F0700001900298016801980843AA
:104580000190019803990968486003980068002128
:10459000C4F2010188423CD0FFE703980068B0F103
:1045A000804F36D0FFE70398006840F20041C4F224
:1045B000000188422DD0FFE70398006840F6000113
:1045C000C4F20001884224D0FFE70398006840F657
:1045D0000041C4F2000188421BD0FFE70398006845
:1045E00040F20041C4F20101884212D0FFE7039873
:1045F000006844F20001C4F20101884209D0FFE7DB
:104600000398006841F60001C4F2000188420ED10F
:10461000FFE7009820F08000009002984168009821
:10462000084300900098039909688860FFE70399A0
:10463000012081F83D00FFE70399002081F83C004C
:10464000FFE700208DF81300FFE79DF8130005B089
:104650007047000080B582B00090009820B9FFE755
:1046600001208DF807003FE0009890F83D0040B928
:10467000FFE70099002081F83C00009800F038F82E
:10468000FFE70099022081F83D00009951F8040BE2
:1046900004F0E8F80099012081F84600FFE700994E
:1046A000012081F83E00009981F83F00009981F8CF
:1046B0004000009981F84100FFE7FFE700990120E1
:1046C00081F84200009981F84300009981F8440084
:1046D000009981F84500FFE70099012081F83D002D
:1046E00000208DF80700FFE79DF8070002B080BDAD
:1046F00080B58AB00990099800680021C4F20101D0
:10470000884226D1FFE7FFE70020089043F64400E7
:10471000C4F20200016841F001010160006800F08C
:10472000010008900898FFE71820029001210391EA
:1047300000220492FEF744FD0298FEF737FD03992C
:10474000049A19200590FEF73BFD0598FEF72EFD13
:1047500040E00998006840F20041C4F2000188423C
:1047600012D1FFE7FFE70020079043F64000C4F2B4
:104770000200016841F002010160006800F00200DF
:1047800007900798FFE724E00998006840F6004189
:10479000C4F2000188421BD1FFE7FFE7002006902A
:1047A00043F64000C4F20200016841F008010160D4
:1047B000006800F0080006900698FFE7322001909C
:1047C00000221146FEF7FCFC0198FEF7EFFCFFE724
:1047D000FFE7FFE70AB080BD83B00190019890F831
:1047E0003D00012804D0FFE701208DF80B006AE0AE
:1047F0000199022081F83D0001980168C86840F0E5
:104800000100C860019800680021C4F201018842DB
:104810003CD0FFE701980068B0F1804F36D0FFE749
:104820000198006840F20041C4F2000188422DD096
:10483000FFE70198006840F60001C4F200018842D9
:1048400024D0FFE70198006840F60041C4F200015F
:1048500088421BD0FFE70198006840F20041C4F293
:104860000101884212D0FFE70198006844F200017C
:10487000C4F20101884209D0FFE70198006841F6BF
:104880000001C4F20001884212D1FFE701980068DC
:10489000806800F0070000900098062807D0FFE726
:1048A00001980168086840F001000860FFE706E031
:1048B00001980168086840F001000860FFE70020E7
:1048C0008DF80B00FFE79DF80B0003B07047000068
:1048D00080B586B00490039100208DF80B00FFE7AF
:1048E000049890F83C00012804D1FFE702208DF8DD
:1048F0001700ABE00499012081F83C00FFE7FFE7D7
:104900000499022081F83D000498006880680190B5
:10491000019820F077000190019820F47F400190E9
:10492000019804990968886003980068009000283D
:1049300072D0FFE7009810286ED0FFE7009820287B
:104940006AD0FFE70098302866D0FFE7009840283B
:1049500055D0FFE70098502837D0FFE7009860282F
:1049600040D0FFE7009870280BD0FFE70098B0F523
:10497000805F05D0FFE70098B0F5005F16D052E0E9
:1049800055E004980068039B5A689968DB6804F056
:1049900057F80498006880680190019840F077000B
:1049A0000190019804990968886040E004980068C3
:1049B000039B5A689968DB6804F042F80498016820
:1049C000886840F48040886031E004980068039A69
:1049D0005168D26804F020FA04980068502104F06D
:1049E00049F824E004980068039A5168D26804F0FA
:1049F0003BFA04980068602104F03CF817E0049842
:104A00000068039A5168D26804F006FA04980068B6
:104A1000402104F02FF80AE004980068039909681F
:104A200004F028F803E001208DF80B00FFE704995B
:104A3000012081F83D00FFE70499002081F83C0047
:104A4000FFE79DF80B008DF81700FFE79DF81700B2
:104A500006B080BD80B586B004900391049820B95B
:104A6000FFE701208DF8170088E0049890F83D00DA
:104A700040B9FFE70499002081F83C00049800F059
:104A800081F8FFE70499022081F83D00049801684D
:104A9000886844F2070290438860049951F8040B37
:104AA00003F0E0FE049800688068029004980068B3
:104AB0008069019004980068006A0090039801687A
:104AC000029808430290019840F203318843019014
:104AD00003998868896940EA012101980843019097
:104AE000019840F60C418843019001984FF2F00183
:104AF000884301900399C868C96940EA0121019877
:104B00000843019003990869096A000140EA0131EC
:104B1000019808430190009820F02200009000982E
:104B200020F08800009003994868496940EA011123
:104B300000980843009002980499096888600198D9
:104B400004990968886100980499096808620499C1
:104B5000012081F84600049981F83E00049981F80B
:104B60003F00049981F84200049981F843000499B8
:104B700081F83D0000208DF81700FFE79DF8170031
:104B800006B080BD80B58EB00D9000200C900B90CB
:104B90000A90099008900D980068B0F1804F3CD1C0
:104BA000FFE7FFE70020079043F64000C4F2020051
:104BB000016841F001010160006800F00100079008
:104BC0000798FFE7FFE70020069043F63000C4F2A5
:104BD0000200016841F001010160006800F001007D
:104BE00006900698FFE70320089002200990002015
:104BF00002900A900B9001200C900020C4F2020059
:104C000008A9FEF739F8029A1C2003901146FEF716
:104C1000D7FA0398FEF7CAFA46E00D98006840F606
:104C20000001C4F2000188423DD1FFE7FFE7002008
:104C3000059043F64000C4F20200016841F004010F
:104C40000160006800F0040005900598FFE7FFE7A9
:104C50000020049043F63000C4F20200016841F0E5
:104C600008010160006800F0080004900498FFE764
:104C70004FF44050089002200990002100910A91C1
:104C80000B910C9040F60040C4F2020008A9FDF719
:104C9000F3FF009A1E2001901146FEF791FA019849
:104CA000FEF784FAFFE7FFE70EB080BD80B586B05F
:104CB00004900391049890F83E008DF80B0004983E
:104CC00090F83F008DF80A00049890F842008DF8A3
:104CD0000900049890F843008DF808000398B8B9CB
:104CE000FFE79DF80B00012805D1FFE79DF80900BB
:104CF000012804D0FFE701208DF8170079E004991E
:104D0000022081F83E00049981F84200FFE742E06A
:104D10000398042817D1FFE79DF80A00012805D160
:104D2000FFE79DF80800012804D0FFE701208DF877
:104D300017005EE00499022081F83F00049981F891
:104D40004300FFE726E09DF80B0001280FD1FFE7A5
:104D50009DF80A0001280AD1FFE79DF80900012803
:104D600005D1FFE79DF80800012804D0FFE70120E6
:104D70008DF817003DE00499022081F83E00049967
:104D800081F83F00049981F84200049981F84300BA
:104D9000FFE7FFE7FFE70398019020B1FFE70198E5
:104DA000042807D00DE0049800680021012203F0D8
:104DB0002BFE14E0049800680421012203F024FE75
:104DC0000DE00498006800210122009203F01CFE0F
:104DD000009A04980068042103F016FEFFE7049887
:104DE0000168086840F00100086000208DF8170095
:104DF000FFE79DF8170006B080BD000081B000906D
:104E000001B0704780B584B0039003980068C06813
:104E1000029003980068006901909DF804008007E3
:104E2000002824D5FFE79DF80800800700281DD53D
:104E3000FFE7039801686FF0020008610399012001
:104E40000877039800688069800720B1FFE703981E
:104E5000FFF7D4FF06E0039800F016F9039800F07E
:104E60000BFAFFE7039900200877FFE7FFE79DF8BB
:104E700004004007002825D5FFE79DF808004007FB
:104E800000281ED5FFE7039801686FF00400086151
:104E900003990220087703980068806910F4407F26
:104EA00004D0FFE70398FFF7A9FF06E0039800F09E
:104EB000EBF8039800F0E0F9FFE70399002008778A
:104EC000FFE7FFE79DF804000007002824D5FFE76F
:104ED0009DF80800000700281DD5FFE7039801682A
:104EE0006FF00800086103990420087703980068B0
:104EF000C069800720B1FFE70398FFF77FFF06E056
:104F0000039800F0C1F8039800F0B6F9FFE70399A1
:104F100000200877FFE7FFE79DF80400C00600289F
:104F200025D5FFE79DF80800C00600281ED5FFE73D
:104F3000039801686FF01000086103990820087752
:104F400003980068C06910F4407F04D0FFE703981D
:104F5000FFF754FF06E0039800F096F8039800F07E
:104F60008BF9FFE7039900200877FFE7FFE79DF83B
:104F70000400C00778B1FFE79DF80800C00748B1FA
:104F8000FFE7039801686FF001000861039800F0E3
:104F90005DFAFFE7FFE79DF804000006002810D542
:104FA000FFE79DF808000006002809D5FFE70398F1
:104FB00001686FF0800008610398FFF7B1FAFFE71E
:104FC000FFE79DF804004006002810D5FFE79DF894
:104FD00008004006002809D5FFE7039801686FF034
:104FE00040000861039800F059FAFFE7FFE79DF8D9
:104FF00004008006002810D5FFE79DF80800800611
:10500000002809D5FFE7039801686FF020000861C8
:105010000398FFF789FAFFE7FFE704B080BD0000BF
:1050200080B588B00790002006900590049003900A
:1050300002900798006840F20041C4F200018842E3
:1050400020D1FFE7FFE70020019043F63000C4F2D3
:105050000200016841F001010160006800F00100F8
:1050600001900198FFE7C0200290022003900021E8
:105070000491059106900020C4F2020002A9FDF7F8
:10508000FBFDFFE708B080BD81B0009001B0704724
:1050900080B586B004900391029200208DF807003D
:1050A000FFE7049890F83C00012804D1FFE70220B4
:1050B0008DF8170089E00499012081F83C00FFE792
:1050C000FFE7029800900C2800F270800099DFE85A
:1050D00001F0076D6D6D206D6D6D3A6D6D6D530056
:1050E00004980068039903F0DBFC04980168886960
:1050F00040F00800886104980168886920F0040085
:10510000886103980269049801688869104388617E
:1051100050E004980068039903F038FD0498016892
:10512000886940F40060886104980168886920F407
:10513000806088610398026904980168886940EA80
:105140000220886136E004980068039903F098FD16
:1051500004980168C86940F00800C86104980168B3
:10516000C86920F00400C8610398026904980168C6
:10517000C8691043C8611DE004980068039903F0F2
:10518000F9FD04980168C86940F40060C86104989A
:105190000168C86920F48060C861039802690498B6
:1051A0000168C86940EA0220C86103E001208DF867
:1051B0000700FFE7FFE70499002081F83C00FFE7C4
:1051C0009DF807008DF81700FFE79DF8170006B05F
:1051D00080BD000080B582B00090009820B9FFE744
:1051E00001208DF807003FE0009890F83D0040B99D
:1051F000FFE70099002081F83C00009800F038F8A3
:10520000FFE70099022081F83D00009951F8040B56
:1052100003F028FB0099012081F84600FFE7009980
:10522000012081F83E00009981F83F00009981F843
:105230004000009981F84100FFE7FFE70099012055
:1052400081F84200009981F84300009981F84400F8
:10525000009981F84500FFE70099012081F83D00A1
:1052600000208DF80700FFE79DF8070002B080BD21
:1052700081B0009001B0704781B0009001B07047DC
:1052800080B58CB00A900991099828B9FFE70A986F
:1052900090F83E0007901CE00998042805D1FFE72C
:1052A0000A9890F83F00069010E00998082805D168
:1052B000FFE70A9890F84000059004E00A9890F8FB
:1052C00041000590FFE705980690FFE706980790D4
:1052D000FFE70798012804D0FFE701208DF82F0091
:1052E000AFE0099828B9FFE70A99022081F83E004B
:1052F0001EE00998042806D1FFE70A99022081F8E8
:105300003F00049012E00998082806D1FFE70A99A7
:10531000022081F84000039005E00A99022081F8FC
:1053200041000390FFE703980490FFE70498FFE72C
:105330000A98006809990122019203F065FB01981F
:105340000A9909680022C4F20102914202900CD02D
:10535000FFE70A9800684FF60041CBF6FE7108445B
:10536000B0FA80F040090290FFE70298C00738B118
:10537000FFE70A980168486C40F400404864FFE782
:105380000A9800680021C4F2010188423CD0FFE77E
:105390000A980068B0F1804F36D0FFE70A9800689D
:1053A00040F20041C4F2000188422DD0FFE70A9884
:1053B000006840F60001C4F20001884224D0FFE7F3
:1053C0000A98006840F60041C4F2000188421BD0F0
:1053D000FFE70A98006840F20041C4F201018842E8
:1053E00012D0FFE70A98006844F20001C4F20101FC
:1053F000884209D0FFE70A98006841F60001C4F22C
:105400000001884212D1FFE70A980068806800F026
:10541000070008900898062807D0FFE70A98016857
:10542000086840F001000860FFE706E00A9801689C
:10543000086840F001000860FFE700208DF82F00A9
:10544000FFE79DF82F000CB080BD000080B582B052
:105450000190019800680021C4F2010188420FD137
:10546000FFE741F6B060C2F2000003F0A9F842F293
:105470009C40C2F2000001F0BBFA01F0FDFFFFE723
:105480000198006840F60041C4F20001884203D14F
:10549000FFE705F0DDFEFFE702B080BD81B00090C0
:1054A00001B0704780B586B004900391ADF80A2032
:1054B000049890F84200202848D1FFE7039820B1D3
:1054C000FFE7BDF80A0020B9FFE701208DF81700BB
:1054D00040E004990120086304990020486304987F
:1054E0000399BDF80A2004F087FE8DF8090004989E
:1054F000006B012821D1FFE7FFE70020019004980D
:105500000068006801900498006840680190019864
:10551000FFE7FFE7FFE70498006850E8030F40F05B
:1055200010000090FFE700990498026842E8031019
:105530000028F0D1FFE7FFE703E001208DF8090024
:10554000FFE79DF809008DF8170003E002208DF8B1
:105550001700FFE79DF8170006B080BD82B00190EC
:10556000ADF802100198006841F20001C4F2010197
:1055700088420ED1FFE7BDF8020042F29C71C2F2F0
:105580000001088042F64801C2F2000101200870C3
:10559000FFE70198006841F20041C4F2010188422E
:1055A0000ED1FFE79DF8020042F65A01C2F2000157
:1055B000087041F6AC61C2F2000101200870FFE7FB
:1055C00002B0704781B0009001B0704780B592B0D2
:1055D0001190119800680068109011980068C068D8
:1055E0000F901198006840690E9000200D900C906B
:1055F000109800F00F000D900D9888B9FFE79DF806
:105600004000800600280AD5FFE79DF83C00800690
:10561000002804D5FFE7119804F09CFC02E2FFE7A4
:105620000D98002800F0C280FFE79DF83800C00701
:1056300038B9FFE7BDF83C0010F4907F00F0B68069
:10564000FFE79DF84000C00758B1FFE79DF83D0017
:10565000C00730B1FFE71199486C40F00100486481
:10566000FFE79DF84000400700280BD5FFE79DF8B5
:105670003800C00730B1FFE71199486C40F00200D4
:105680004864FFE79DF84000800700280BD5FFE73E
:105690009DF83800C00730B1FFE71199486C40F021
:1056A00004004864FFE79DF840000007002811D57A
:1056B000FFE79DF83C008006002805D4FFE79DF831
:1056C0003800C00730B1FFE71199486C40F008007E
:1056D0004864FFE71198406C002866D0FFE79DF80A
:1056E0004000800600280AD5FFE79DF83C008006B0
:1056F000002804D5FFE7119804F02CFCFFE711986F
:1057000000684069C0F380100C901198406C00074D
:10571000002804D4FFE70C9800283ED0FFE711983A
:1057200004F09EFB119800684069400600282FD5C0
:10573000FFE7FFE7FFE71198006850E8050F20F04A
:1057400040000B90FFE70B991198026842E80510A2
:105750000028F0D1FFE7FFE71198C06B98B1FFE791
:105760001198C16B49F6A140C0F600000865119878
:10577000C06BFCF793FF28B1FFE71198C06B016D78
:105780008847FFE703E01198FFF71CFFFFE703E0FE
:105790001198FFF717FFFFE706E01198FFF712FFD8
:1057A000119900204864FFE7FFE73BE11198006B87
:1057B000012840F01781FFE79DF84000C00600284F
:1057C00040F11081FFE79DF83C00C006002840F141
:1057D0000981FFE7FFE700200A9011980068006840
:1057E0000A901198006840680A900A98FFE711989B
:1057F000006840694006002840F19A80FFE7119850
:10580000C06B00684068ADF82600BDF8260000288F
:1058100075D0FFE7BDF826001199898D88426EDAB0
:10582000FFE7BDF826001199C8851198C06BC069C3
:10583000B0F5807F58D0FFE7FFE7FFE711980068D9
:1058400050E8030F20F480700890FFE70899119842
:10585000026842E803100028F0D1FFE7FFE7FFE706
:10586000FFE71198006850E8050F20F0010007904D
:10587000FFE707991198026842E805100028F0D167
:10588000FFE7FFE7FFE7FFE71198006850E8050F23
:1058900020F040000690FFE706991198026842E860
:1058A00005100028F0D1FFE7FFE71199202081F8CB
:1058B0004200119900200863FFE7FFE71198006894
:1058C00050E8030F20F010000590FFE705991198AC
:1058D000026842E803100028F0D1FFE7FFE71198C3
:1058E000C06BFCF765FEFFE7119902204863119831
:1058F000818DC28D891A89B2FFF730FE17E0BDF89D
:1059000026001199898D884210D1FFE71198C06B4C
:10591000C069B0F5807F08D1FFE711990220486384
:105920001198818DFFF71AFEFFE7FFE7FFE779E0A7
:105930001199888DC98D401AADF812001198C08D4B
:1059400000284ED0FFE7BDF81200002849D0FFE73D
:10595000FFE7FFE71198006850E8030F20F490700C
:105960000390FFE703991198026842E803100028AA
:10597000F0D1FFE7FFE7FFE7FFE71198006850E885
:10598000050F20F001000290FFE7029911980268CC
:1059900042E805100028F0D1FFE7FFE71199202029
:1059A00081F84200119900200863FFE7FFE7119892
:1059B000006850E8030F20F010000190FFE7019904
:1059C0001198026842E803100028F0D1FFE7FFE7D2
:1059D0001199022048631198BDF81210FFF7BEFD1F
:1059E000FFE71FE09DF84000000600280AD5FFE70A
:1059F0009DF83C000006002804D5FFE7119804F04C
:105A0000C5FC0FE09DF84000400600280AD5FFE7DE
:105A10009DF83C004006002804D5FFE7119804F0EB
:105A200069FAFFE712B080BD80B582B0009000989F
:105A300020B9FFE701208DF8070040E00098806959
:105A400008B1FFE700E0FFE7009890F8410040B997
:105A5000FFE70099002081F84000009800F034F83A
:105A6000FFE70099242081F8410000980168C86888
:105A700020F40050C860009804F020FB00980168F2
:105A8000086920F49040086100980168486920F096
:105A90002A00486100980168C86840F40050C86056
:105AA000009900204864009A202182F84110009A51
:105AB00082F84210009948638DF80700FFE79DF8CF
:105AC000070002B080BD000080B5A2B02190002088
:105AD00020901F901E901D901C902198006841F20C
