:020000040800F2
:10000000483700209D01000839550008FD440008CC
:1000100025520008B91200083160000800000000F5
:10002000000000000000000000000000655600080D
:1000300019130008000000003D550008B1570008E2
:10004000B7010008B7010008B7010008B7010008B0
:10005000B7010008B7010008B7010008B7010008A0
:10006000B7010008B7010008B7010008B701000890
:10007000B7010008B7010008B7010008B701000880
:10008000B7010008B7010008B7010008B701000870
:10009000B7010008B7010008B7010008B701000860
:1000A000915800089D580008B7010008B7010008E2
:1000B000A9580008B7010008B5580008B7010008A2
:1000C000B7010008B7010008B7010008B701000830
:1000D000B7010008015F00080D5F0008B7010008C4
:1000E000B7010008B7010008B7010008B701000810
:1000F000B7010008B7010008B7010008B701000800
:10010000B7010008B7010008C1580008B70100088E
:10011000B7010008B7010008B7010008B7010008DF
:10012000E9120008F512000801130008B7010008E1
:10013000B7010008B7010008B7010008B7010008BF
:10014000B7010008B7010008B7010008B7010008AF
:10015000B7010008B70100080D130008195F000877
:10016000B7010008B7010008B7010008B70100088F
:10017000B7010008B7010008B7010008000000003F
:10018000B7010008B7010008DFF80CD000F008FE46
:100190000048004745780008483700200648804757
:1001A00006480047FEE7FEE7FEE7FEE7FEE7FEE75C
:1001B000FEE7FEE7FEE7FEE75D580008890100085C
:1001C0002DE9F05F0546002092469B46884606468C
:1001D000814640241BE0284641464746224600F01F
:1001E00092FC53465A46C01A914110D31146184604
:1001F000224600F079FC2D1A67EB01084F46224693
:100200000120002100F070FC17EB00094E41201E78
:10021000A4F10104DFDC484631462A464346BDE8E6
:10022000F09FD2B201E000F8012B491EFBD27047CB
:100230000022F6E710B513460A4604461946FFF7B2
:10024000F0FF204610BD00000FB400B58DB010A91E
:1002500009900B9000914FF0FF300A9000200C9015
:1002600005480690054807906A4609A80F9900F0CE
:1002700081FC0DB05DF814FB910B0008AF0B00087A
:100280002DE9FF5F1D464FF0FF3BD5E90146914642
:100290005F464FF00008A9697F1C01988847296ACA
:1002A000824688470028F6D1BAF1FF3F0CD024F4EB
:1002B000C064002E19DD600614D5BAF12B0F09D0E9
:1002C000BAF12D0F0ED103E0584604B0BDE8F09FFF
:1002D00044F48064A9697F1C01988847761E824691
:1002E000002E02DDBAF1300F03D0B9F1000F26D095
:1002F00032E0A969761E44F400747F1C0198884797
:100300008246002E05DDBAF1780F06D0BAF1580FFB
:1003100003D0B9F1000F10D01EE0B9F1000F02D0E8
:10032000B9F1100F18D1A969761E24F400747F1C4E
:10033000019888478246102002E0082000E00A2049
:10034000814609E008FB0908A969761E44F4007497
:100350007F1C019888478246002E05DD494650469D
:1003600000F0F3FB0028EDDAE96901988847A00561
:1003700002D46FF00100A8E7E00725D1600613D58D
:10038000600502D5C8F1000000E0404629680A1D5A
:100390002A600968220501D5087015E0220701D5F9
:1003A000088011E008600FE02868011D29600068DE
:1003B000210502D580F8008006E0210702D5A0F8CB
:1003C000008001E0C0F8008038467EE72DE9FF4F4D
:1003D000087883B09946FF2805D0491C2D2804D001
:1003E0000024002008E000200BE00124F9E700EBE6
:1003F000800003EB4000491C0B78FF2BF7D104B1C0
:10040000404200230293147819461D462D2C01D03A
:100410002B2C04D1521C2D2C13D000240294AA465C
:100420001478FF2C0FD00A25A3FB057801FB05816A
:100430004FF0000C03FB0C11521CE3194AEB0101B5
:10044000EEE70124EAE7814453EA010002D019F5FE
:10045000C87F06DA03980021C0E9001107B0BDE8A3
:10046000F08F0025AE4E2F46DFF8B882184600F018
:1004700043FCCDE90001B9F1000002DAC9F1000442
:1004800000E004460023A74A1AEB030B42EB045A90
:1004900012E0E00707D02A4633463846414600F0CE
:1004A000ECF9074688462A4633461046194600F0BE
:1004B000E4F905460E466410002CEAD1DDE900019E
:1004C000B9F1000F5A46534606DA00F048FA3A46A8
:1004D000434600F044FA05E000F0CFF93A464346BF
:1004E00000F0CBF9029A0AB181F00041039AC2E907
:1004F0000001B3E72DE9FF4F1F468DB0D7E9014654
:100500004FF0FF382E2045464FF000090B90B96997
:100510006D1C0E988847396A824688470028F6D1B4
:10052000BAF1FF3F0AD024F4D064002E11DDBAF1F5
:100530002B0F08D0BAF12D0F0BD102E0404611B0BD
:100540008DE744F48064B9696D1C0E988847824633
:10055000761E6946600501D52D2000E02B208DF820
:10056000000001F1010B0DF1200809E0B9696D1CD3
:100570000E98884782460F9844F40074761E0560F2
:10058000002E02DDBAF1300FF0D00B998A453ED132
:1005900044F0800406E00F99681CA9F1010944F4B5
:1005A00000740860B9696D1C761E0E9888478246F3
:1005B0003028F0D02BE00B998A4505D1200603D4D2
:1005C00044F08004761E18E0504607F0A9FF08B3F7
:1005D0000DF11302761EAAF1300044F40074934525
:1005E00006D20BF8010B200607D5A9F1010003E0A4
:1005F000200602D409F101008146A00502D50F9919
:10060000681C0860B9696D1C0E9888478246002EE8
:10061000D1DC53E0002E51DDBAF1650F02D0BAF102
:10062000450F4BD1A00549D5B9696D1C24F4407420
:10063000761E0E9888478246002E0CDD2B2804D0AB
:10064000BAF12D0F07D144F48074B9696D1C0E986E
:1006500088478246761EE00501D52D2100E02B213A
:1006600008F8011BCDF82C8021E00DF12901761E40
:1006700044F4007488450CD2AAF1300010F0FF0059
:1006800088F8000002D10B99884509D908F10108C2
:1006900006E0E00501D5244801E042F20F708146F2
:1006A000B9696D1C0E98884782460F980560002E28
:1006B00004DD504607F034FF0028D6D1F9690E98C2
:1006C0008847FF208BF8000088F800000020069083
:1006D00007904B466A4608A906A8FFF777FEA005D3
:1006E00002D46FF001002AE714F0240F0AD0E007CB
:1006F00014D1DDE906123868031D3B600068C0E9CB
:1007000000120BE0DDE9060100F0BCF90146E0074C
:1007100004D13868021D3A600068016028460EE77F
:10072000000014400000F03FF1D8FFFF2DE9FE4F1C
:10073000804681EA0300C00F0C46009021F0004182
:1007400023F00045B8EB0200A94105D240462146FE
:1007500090461C460B46024623F00040104347D00B
:10076000270DC7F30A00C3F30A510290401A019003
:1007700040286BDAC3F3130040F4801B00989246C4
:1007800020B10023D2EB030A63EB0B0B019859460F
:10079000C0F14002504600F0A7F906460D4650460B
:1007A0005946019A00F0BFF910EB0800614100249E
:1007B00087EA115284EAE7731A4340D0009A62B381
:1007C000019A012A4FEA075215DC001B61EB020176
:1007D0004FF0004202EA0752CDE90042001C41F509
:1007E000801132462B4600F039FA03B0BDE8F08F95
:1007F00040462146F9E7001B61EB0201001C41F570
:10080000801300185B412018A2F5001747EB030185
:1008100040EAD570B6196D4111E06D084FEA360611
:1008200045EAC0754FEA0752001B61EB0201001C4C
:1008300041F5801149084FEA300000195141324614
:100840002B4603B0BDE8F04F00F0F9B90098012243
:1008500040000023D0EB020263EBE07300982146D6
:100860004FEAE074B8EB000061EB0401E9E783F0C4
:1008700000435BE781F0004158E72DE9FE4F81EA34
:10088000030404F0004421F0004100944FF0000BF9
:1008900023F0004350EA01045ED052EA03045BD027
:1008A000C3F30A54C1F30A552C44A4F2F33401945F
:1008B000A0FB0254C1F3130141F48011C3F31303ED
:1008C00043F4801301FB024400FB034E840A970AA1
:1008D00044EA815447EA8357A4FB076802958D0ACE
:1008E00005FB07854FEA932C04FB0C542705029D5A
:1008F0004FEA065847EA1637B5EB08056EEB070CCA
:10090000870E920E47EA811742EA8312A7FB020183
:10091000B6EB0B0164EB00042B0D43EA0C335E18BD
:1009200044EB1C50DA465146E7FB0201C5F31304C1
:100930004FEA0B3343EA14534FEA0432019C43EA73
:100940000603A4F10C040294009CCDE900B400F06D
:1009500085F903B0BDE8F08F00200146F9E72DE9E5
:10096000F04D81EA030404F0004B21F000451446E9
:100970004FF0000A23F0004150EA050220D054EA6B
:1009800001021DD0C5F30A570246C5F31303C1F394
:100990001300C1F30A5640F4801543F48013A7EB0B
:1009A0000608101BD64608F2FD3873EB050002D38B
:1009B00008F1010801E092185B41B8F1000F03DA79
:1009C00000200146BDE8F08D00204FF4801106465E
:1009D00084460EE0171B73EB050705D3121B63EB70
:1009E000050306434CEA010C49084FEA300092180F
:1009F0005B4150EA0107EDD152EA030012D082EACE
:100A0000040083EA0501084305D0101BAB4106D260
:100A10000122002306E000224FF0004302E06FF0C5
:100A2000010253101AEB06004CEB085110EB0A00C0
:100A300041EB0B01BDE8F04D00F001B90EB5C10F5F
:100A400080EAE0700844CA07002140F233438DE891
:100A50000E000A460B4600F001F903B000BD00F09D
:100A6000004230F000400AD0C10D01F56071C0F3C2
:100A7000160042EA0151C2084007114370470020A6
:100A80000146704701F0004330B421F0004150EAC4
:100A9000010206D00A0DA2F56072C1F31301002A0B
:100AA00002DC30BC00207047440F44EAC104C1009E
:100AB000E01830BC00EBC25000F08AB830B50B46ED
:100AC000014600202022012409E021FA02F59D427E
:100AD00005D303FA02F5491B04FA02F52844151E52
:100AE000A2F10102F1DC30BD202A04DB203A00FA39
:100AF00002F1002070479140C2F1200320FA03F375
:100B0000194390407047202A04DB203A21FA02F072
:100B10000021704721FA02F3D040C2F12002914037
:100B2000084319467047202A06DBCB17203A41FAC2
:100B300002F043EAE07306E041FA02F3D040C2F16A
:100B4000200291400843194670473A2800D23038B5
:100B500020F02002412A01D3A2F13700884201D3BC
:100B60004FF0FF30704700000268114413780160B5
:100B700018467047D160044951610449116200214F
:100B80001161114600F02AB9690B0008D10D000867
:100B9000426842B1016811F8013B23B1521EC0E91D
:100BA0000012184670470121C160881E70474268D4
:100BB0005AB1C368016843B983688B4205D0491EA6
:100BC000521CC0E90012002070474FF0FF30704700
:100BD0000029A8BF7047401C490008BF20F0010051
:100BE000704710B4B0FA80FC00FA0CF050EA01042F
:100BF00004BF10BC704749B1CCF1200421FA04F4C1
:100C000011FA0CF118BF012121430843A3EB0C0199
:100C1000CB1D4FEA00614FEA102042BF002010BCFC
:100C2000704700EBC35010440029A4BF10BC7047AC
:100C3000401C490008BF20F0010010BC704710B5EF
:100C4000141E73F1000408DA401C41F100019218EF
:100C50005B411A4301D120F0010010BD2DE9F04D98
:100C600092469B4611B1B1FA81F202E0B0FA80F2ED
:100C700020329046FFF738FF04460F4640EA0A004C
:100C800041EA0B0153465A46084313D0114653EA32
:100C9000010019D0C8F140025046FFF734FF054665
:100CA0000E46504659464246FFF71EFF084305D000
:100CB000012004E020463946BDE8F08D00200543C0
:100CC00046EAE0762C4337430A986305E40AA0EB32
:100CD00008000022FD0A44EA47540A3002D50020E9
:100CE0000146E9E7010510196941DDE908450019E8
:100CF0006941BDE8F04DA2E70EB540F233420292E1
:100D00000022CDE900221346FFF7A8FF03B000BD83
:100D1000C1F30A52C1F3130140F2FF3341F48011D1
:100D20009A4202DA00200146704740F233439A4269
:100D3000A2F2334202DC5242FFF7E5BEFFF7D4BE17
:100D400030B5041E71F1000404DB4FF00044404252
:100D500064EB0101141E73F1000405DB1C464FF027
:100D60000043524263EB04038B4208BF824230BD12
:100D700030B5041E71F1000404DB4FF00044404222
:100D800064EB0101141E73F1000405DB1C464FF0F7
:100D90000043524263EB0403994208BF904230BDC6
:100DA0001CB509480090094801900546009C06E0E2
:100DB000E06840F0010394E8070098471034AC4223
:100DC000F6D3FFF7E5F9000038C3000858C3000860
:100DD000C0B24FF4F05100F0E9B900002DE9F34F33
:100DE0008BB04FF0000801F10C000C464FF0010BE6
:100DF00046460DF1080A0190626901210198904769
:100E0000051E2DD0252D2CD0216A8847C0B16269DE
:100E1000012101989047216A88470028F7D1411E97
:100E200062690198904700E0761CA1690B98884799
:100E3000216A88470028F7D1E1690B988847DBE7EA
:100E4000A1690B9888470746A84201D1761CD3E7D1
:100E5000E1690B9888477F1C02D1B8F1000F6FD071
:100E600046E1002762693D463946019890472A28A5
:100E700004D162690121019890470125DFF884922D
:100E80006269012101989047A0F130010A290AD234
:100E90004F45E5DC07EB870100EB4107303FDFD42E
:100EA00045F01005ECE7E90601D46FF000476C2827
:100EB0000AD04C2814D0682815D06A280DD0742880
:100EC0001CD07A281AD01DE0626901210198904750
:100ED0006C2802D045F0040514E045F002050DE051
:100EE00045F020050AE062690121019890476828D1
:100EF00002D045F0080505E045F40065626901216E
:100F000001989047C4E9015765283DD019DC58285D
:100F10007AD00CDC452837D004DC252826D041289F
:100F200031D131E046282FD047282CD12CE05B2846
:100F300077D0612828D063287CD0642823D15AE058
:100F4000D0E06F2848D008DC66281DD067281BD069
:100F5000692821D06E2816D127E0702845D0732843
:100F600068D0752847D078280DD14DE0A1690B983D
:100F70008847054625283FF469AFE1690B98884703
:100F80006D1C3FF46AAFB3E023466A466FF0010080
:100F90000B99FFF7AFFA9EE045F040006060A807AC
:100FA00023464FF0000236D43EE0E8077FF447AF17
:100FB0002068011D21600068290501D506701BE726
:100FC000290701D5068017E7A90703D5F117C0E95E
:100FD000006111E706600FE745F040006060A80778
:100FE00023464FF0080216D41EE040F60E0125EA13
:100FF0000100606016E045F040006060A8072346ED
:101000004FF00A0207D40FE045F040006060A807E7
:1010100008D5234610226FF001000B99AFF3008032
:1010200059E007E0234610226FF001000B99FFF70B
:1010300027F950E04FF000094F464B46632802D095
:101040005B2806D040E0E80601D40120A06001271B
:101050003AE062690121019890475E2805D14FF07E
:1010600001096269494601989047216939B900210F
:101070000A46534643F82120491C0829FADBB0B33D
:10108000216969B9C11700EBD16253110AEB8301E1
:1010900022F01F02821A01200B68904003430B606C
:1010A00062690121019890475D28E8D1B9F1000FEC
:1010B00009D00020514651F82020D24341F8202089
:1010C000401C0828F7DB02AB224600976FF00100B6
:1010D0000B99AFF3008000280CDA401C08D1BBF15B
:1010E000000F05D04FF0FF300DB0BDE8F08FFFE7E7
:1010F0004046F9E7E90701D108F1010806444FF03D
:10110000000B79E6CCCCCC0C2DE9F04D00231A462F
:101110001B1A8A4103DB00200146BDE8F08DC1F3B4
:101120000A52C1F3130141F480154FF0000BD107AF
:1011300002D100186D41521E0027044640F2FF11F3
:10114000384601EB620A3E468046024600204FF4D4
:101150008011FFF7D8FCC2197141BB1846EB0100A2
:10116000B4EB030C75EB000C04D3E41A65EB00053B
:1011700017460E46241908F101006D4180463428B7
:10118000E3DDF91946EB0600091BA84103D24FF035
:10119000FF32134601E0002213461BEB070046EB2B
:1011A0000A51BDE8F04DFFF74ABD00007F2801D984
:1011B000002208E0064A02EB5002C007127800D174
:1011C000120902F00F020120904008407047000011
:1011D000208E000870B58C1810F8015B15F007031D
:1011E00001D110F8013B2A1106D110F8012B03E0C0
:1011F00010F8016B01F8016B5B1EF9D12B0705D4C8
:101200000023521E0DD401F8013BFAE710F8013B10
:10121000CB1A921C03E013F8015B01F8015B521E2C
:10122000F9D5A142D8D3002070BD00000146806BE3
:10123000036C026C13F0500F08D0D20648BF00F0C8
:1012400019B9806BC26C0846104700BF42F40071A8
:10125000016401688A6812F0405F01D000F006B9AD
:10126000027E002AFAD1CA6A12F4700F02D08A688C
:101270005205F3D44A6822F020024A60016C21F43E
:1012800080710164016CC90448BF00F0EFB8016CC3
:1012900041F00101016400F0E9B80000806B4021D9
:1012A0000164416C41F00401416400F0E3B80000C6
:1012B000806B00F0DDB80000FEE7000040F278200F
:1012C000C2F200000021C0F84E10C0F84A10C0F869
:1012D0004610C0F84210C0F83E10C0F83A10C0F8EE
:1012E0003610C0F83210704742F23400C2F20000EB
:1012F00000F0F2BA42F25410C2F2000000F0ECBA70
:1013000042F29400C2F2000000F0E6BA42F2F400A9
:10131000C2F2000000F0E0BA7047000072B600BFF1
:10132000FEE7000070B581B00022009290F83C20EA
:10133000012A03D10221084601B070BD0E680122C6
:101340000A2E80F83C2009D3B2B25200D0F800E057
:1013500012FA86F21E3A0EF10C0305E0D0F800E016
:1013600006EB46020EF110034FF0070C1D680CFA55
:1013700002F4A5431D608D681C6805FA02F2224341
:101380001A60496806290FD801EB81014A1F71468E
:101390001F2351F8345F934025EA03030B60B3B277
:1013A00003FA02F214E000BF01EB81030C29B2B290
:1013B00004D8714651F8304F233B03E0714651F891
:1013C0002C4F413B1F259D4024EA05059A400D60A6
:1013D0000B6842F2043CC4F2010C1A43ACF54173B1
:1013E0009E450A603BD1122E06D1DCF8001041F474
:1013F0008001CCF8001032E026F0010110292ED136
:10140000DCF80010102E41F40001CCF8001026D1B9
:1014100040F21C01C2F2000109684DF68362C4F279
:101420001B32A1FB0212910C01EB810149000091DA
:101430000099A1B1009901390091009979B1009901
:1014400001390091009951B1009901390091009939
:1014500029B100990139009100990029EAD10021B0
:1014600080F83C10084601B070BD000070470000D5
:101470007047000070470000002804BF012070473B
:1014800010B50446006C00283ED0206CC00645D440
:10149000206C41F202118843023042F20431206490
:1014A000C4F20101086820F4403008600A6894E83A
:1014B00009101A43D4F810E00A604168012321F4AE
:1014C000807141604168C0F6007341EA0E214160BD
:1014D000416821F040714160416841EA0C0141607E
:1014E000816821F400618160E16882681143816054
:1014F000A16A8268994222F070628260826813D188
:1015000022F0405119E000BF204600F065F80020AD
:10151000606484F83C00206CC006B9D5012000212D
:1015200084F83C1010BD00BF11438160816821F038
:1015300040518160E16A826811438160816821F0D5
:10154000020181608168227E94F8203041EA4201E4
:101550008160416883B141F40061416041684EF2AD
:10156000000221F460414160616ACFF6FF72436876
:1015700002EB4131194301E021F400614160C16A8D
:1015800040F2000C21F47001C162E2696169CFF69A
:10159000F07CC36A0CEB02521A43C262826822F4E6
:1015A0000072826094F83020836843EA42228260AD
:1015B000826822F480628260826842EA81218160CE
:1015C00000206064216C012262F30101216400218A
:1015D00084F83C1010BD000070B586B0044642F29D
:1015E00000002168C4F2010000268142059604969D
:1015F00002D006B070BD00BF43F630010096C4F2C1
:1016000002014A6900F5604042F480724A614A6909
:1016100002F480720092009A00960A6842F0010279
:101620000A60096801F0010100910099042101910B
:101630000321CDE9021601A900F046FB42F2340570
:1016400046F21040C2F20005C4F202004FF480617D
:10165000C5E9000605F110004FF400624FF4005395
:101660004FF4807C80E80E102846C5E90266C5E983
:10167000086600F011FA002818BFFFF74FFEA563B7
:10168000AC6306B070BD0000B0B582B00446002067
:10169000019094F83C00012802D1022002B0B0BDB4
:1016A00094460A460120216884F83C008868C007F7
:1016B00029D188684DF6836540F00100886040F2CA
:1016C0001C00C2F200000068C4F21B35A0FB050537
:1016D000A80C00EB400001900198A0B101980138DE
:1016E0000190019878B1019801380190019850B1AA
:1016F000019801380190019828B1019801380190B2
:1017000001980028EAD18868C00503D5886820F4CC
:10171000807088608D68206CED0709D140F0100062
:101720002064606C40F001006064002002B0B0BD35
:1017300040F20175A84300F58070206448684005B8
:1017400004D5206C012565F30D302064256C002044
:10175000ED044FF0000544BF656C25F00605656497
:1017600084F83C00A06B41F22D2541F2B123C0F674
:101770000005C0F60003C0E90F5341F29D23C0F6F7
:101780000003C3646FF022030B604B6842F208054C
:1017900043F080634B608B68C4F2010543F48073AF
:1017A0008B604C31634600F029FAD5F8FC222168A1
:1017B000D20605D0A5F10802914229D002B0B0BDF1
:1017C00042F20002C4F20102914217D042F200221A
:1017D000C4F2010291420DD042F20012C4F20102A1
:1017E0009142EBD1D5F8FC22D20607D005F5FC7268
:1017F0009142E3D1D5F8FC22D206DFD48A6812F0F8
:10180000405FDBD18A6842F080428A6002B0B0BD9E
:10181000296811F0405FD1D1296841F080412960E9
:1018200002B0B0BD70B5866D044600F02BFB94F895
:101830003510022928D105462068216C026822F063
:1018400016020260426922F08002426109B9A16C6D
:1018500019B1016821F008010160016821F001015E
:10186000016000BF20680068C00715D000F00AFBC7
:10187000401B0628F6D320206065032084F835003D
:10188000002184F8341070BD8020606501200021A3
:1018900084F8341070BD00BFE06D3F2101FA00F004
:1018A000B060012084F835000020002184F8341055
:1018B00070BD000090F83510022909D1052180F88B
:1018C00035100068016821F00101016000207047B7
:1018D0008021416501207047F0B581B004460020A9
:1018E000009040F21C00C2F200000268D4E91660C9
:1018F00048F2B51337680821C1F64E3381403942AA
:10190000A2FB03250CD0226813685B0708D5136877
:1019100023F004031360B160616D41F00101616562
:1019200001218140394208D022685269120604D54B
:10193000B160616D41F0020161650421814039426D
:1019400008D022681268920704D5B160616D41F039
:101950000401616510218140394217D02068026876
:10196000120713D5B16002680168520308D4C90593
:1019700008D4016821F008010160216C21B905E05B
:1019800008033FD4216C09B120468847E16D20202F
:1019900000FA01F23A4241D020680368DB063DD5E7
:1019A000B26094F835300268052B1BD122F0160284
:1019B0000260426922F080024261226C0AB9A26C84
:1019C0001AB1026822F0080202603F208840B0602D
:1019D000012084F83500216D0020002984F83400AE
:1019E00052D157E00168520310D4C90512D40168DE
:1019F00021F010010160012084F83500002084F8F6
:101A0000340007E0A16C0029BED1BFE7080301D470
:101A1000616C00E0E16B09B120468847606DC8B396
:101A2000606DC0072ED0052084F835002068A90A13
:101A3000026822F001020260009A01328A4200929A
:101A40001AD80268D20717D0009A01328A4200924F
:101A500012D80268D2070FD0009A01328A4200924F
:101A60000AD80268D20707D0009A01328A4200924F
:101A700002D80268D207DFD1012084F835000020A7
:101A800084F83400E16C29B1204601B0BDE8F04093
:101A9000084700BF01B0F0BD2DE9F041044600F059
:101AA000F1F9ECB10546022084F8350000202168E8
:101AB00084F83400086820F0010008602168086894
:101AC000C00711D000F0DEF9401B0528F6D9032528
:101AD00020230320636584F83550BDE8F08100BF02
:101AE0000120BDE8F08100BF086848F23F02CFF254
:101AF0001002D4E9013500EA020C04F10C0898E860
:101B0000C10143EA0C032B431843D4E9072E3043A9
:101B100038431043626A40EA0E00042A40EA080390
:101B20001CD1206BD4E90A2E40EA0E00184308604D
:101B30004869BEF1000F20F0030040EA020040F0C7
:101B4000040C11D0B8F5005F36D0B8F1000F45D1C4
:101B5000022A46D0012A3BD032B942E00B604869E4
:101B600020F0070040EA020C01F0F8004AF6AB2230
:101B70001038CAF6AA22A0FB02231A094CF26C23E1
:101B8000C1F814C0C0F600039A5C40F2FF335F282E
:101B90004FF03F0021EA030100FA02F088BF043150
:101BA000C4E916128860002301250020636584F8CB
:101BB0003550BDE8F08100BF032AD5D80125402368
:101BC0000120DFE802F0030E030500BF82E700BF3B
:101BD000AEF1C070B0FA80F0400904E0032A04D3EB
:101BE000C2D1CEF300600028BED0012540230120E1
:101BF000636584F83550BDE8F081000090F834C08A
:101C0000BCF1010F04BF0220704770B54FF0010C0A
:101C100080F834C0D0F858E090F835C0BCF1010F1E
:101C200038D14FF0020C80F835C04FF0000CC0F8EE
:101C300054C0D0F800C08468056CC06DDCF800604A
:101C4000402C26F48026CCF80060CCF804300B46FB
:101C500004BF13460A463F2101FA00F0CCF80830D1
:101C6000CCF80C20CEF80800DCF8000040F016009C
:101C7000CCF800002DB1DCF8000040F00800CCF8F2
:101C80000000DCF8000040F00100CCF8000000206B
:101C900070BD00BF002180F83410022070BD00002C
:101CA000B0B5044600F0EEF8054640F20800C2F276
:101CB00000000078611C18BF044400BF00F0E2F887
:101CC000401BA042FAD3B0BD2DE9F04F82B000F125
:101CD0003E4707F1FF77860546EA972741F600461B
:101CE000C4F20206082243F6004EB04208BF0722A3
:101CF000C4F2010E072F38BF3A46002600274FF0E6
:101D00000008009209E000BF08F101080237B8F1AD
:101D1000100F06F1040600F0A3800D68012202FAFC
:101D200008F415EA0409EFD0D1F804B003220BF04F
:101D3000030CACF10105BA40012D6FEA020A0FD87D
:101D40008268CD6802EA0A02BD402A438260426886
:101D5000A243CBF3001404FA08F42243426005E0E6
:101D6000BCF1030F02D14FF0030C1EE0C2688C6877
:101D700002EA0A02BC402243BCF1020FC26014D145
:101D80006FF0030202EA58020244D2F820C006F0C3
:101D90001C040F230D69A3402CEA0303A5402B4329
:101DA0001362D1F804B00BF0030C02680CFA07F3CD
:101DB00002EA0A021A431BF4403F0260A4D0002248
:101DC00043F644030192C4F202031A684FF6084C2A
:101DD00042F480421A601A68CFF6FF7C02F4804217
:101DE0000192019A28F00302724452F80C3006F076
:101DF0000C050F24AC40A343009C04FA05F52B43CB
:101E000042F80C30DEF808204B6842EA090543F638
:101E10000C4CDC0258BF22EA0905CEF80850C4F287
:101E2000010CDCF800209C0242EA090558BF22EAB6
:101E30000905CCF80050DEF804209C0342EA0905AD
:101E400058BF22EA0905CEF80450DEF80020DB0373
:101E500042EA090558BF22EA0905CEF8005053E7C7
:101E600002B0BDE8F08F0000426902EA010391432D
:101E700041EA034181617047002A08BF090481617A
:101E80007047000042F24470C2F2000000687047E0
:101E900040F2080042F24471C2F20000C2F20001B6
:101EA00000780A68104408607047000080B543F667
:101EB0000040C4F20200016841F400710160016851
:101EC00041F480610160016841F480710160032088
:101ED00000F086F80F2000F005F800F027F8002049
:101EE00080BD000070B540F20806C2F2000640F264
:101EF0001C013278C2F200014FF47A730968B3FB17
:101F0000F2F20446B1FBF2F1084600F01BFF0F2C81
:101F10004FF0010508D838B94FF0FF3021460022B4
:101F2000002500F031F87460284670BD82B00020B2
:101F300043F640010190C4F202014A6842F4804233
:101F40004A604A6802F480420192019A009008684F
:101F500040F080500860086800F0805000900098C1
:101F600002B07047002848BF704700F01F010122EF
:101F700002FA01F11C2202EAD0004EF20012CEF267
:101F8000000281507047000010B54EF60C5CCEF296
:101F9000000CDCF80030C3F3022E8EF00704042C92
:101FA00028BF0424BEF103034FF0FF3E0EFA04F4F1
:101FB00038BF0023A14399400EFA03F39A4311431B
:101FC00000F00F0200F160430901043A03F5644395
:101FD0006244002848BF02F10C03197010BD0000D4
:101FE0004EF60C51CEF200010A684FF6FF031A407C
:101FF00060F30A2242F0806040F0FD700860704794
:10200000002804BF012070472DE9F04143F608087D
:10201000C4F202080446D8F8F8030D4600F00700A1
:10202000884207D288F8F853D8F8F80300F0070080
:10203000A84277D12068810717D5410705D5D8F880
:10204000001041F4E051C8F80010010705D5D8F898
:10205000001041F46041C8F80010D8F80010A268E0
:1020600021F0F0011143C8F80010C00740D1D8F8A2
:10207000F80300F00700A84207D988F8F853D8F809
:10208000F80300F00700A8424CD12068410707D5AB
:10209000D8F80010E26821F4E0511143C8F80010AC
:1020A000000708D5D8F80000216920F4604040EA14
:1020B000C100C8F8000000F07DF8D8F8001048F61C
:1020C0006062C1F30311C0F60002515C40F21C02D1
:1020D00020FA01F140F20C00C2F200000068C2F2E6
:1020E00000021160FFF7FEFE0020BDE8F08100BF96
:1020F0006068811E022907D258F8081C89015CBF5C
:102100000120BDE8F08111E0012807D158F8081C32
:1021100089035CBF0120BDE8F08107E058F8081C86
:10212000890703D40120BDE8F08100BFD8F8001072
:1021300021F003010843C8F80000FFF7A3FE06469C
:1021400041F28837D8F80000616800F00C00B0EB6D
:10215000810F8CD0FFF796FE801BB842F2D9032086
:10216000BDE8F08140F21C0043F60801C2F2000015
:10217000C4F202010068096848F67062C1F3822166
:10218000C0F60002515CC8407047000040F21C00DD
:1021900043F60801C2F20000C4F2020100680968B7
:1021A00048F67062C1F34231C0F60002515CC8408B
:1021B0007047000010B543F60404C4F202046068DE
:1021C00000F00C0142F200400829C0F2F40007D0F0
:1021D000042918BF10BD41F20020C0F27A0010BDE2
:1021E000216801F03F02216823684902C3F3881186
:1021F00006D4A1FB00010023FDF7E2FF07E000BFCA
:1022000041F20020C0F27A004843B0FBF2F02168AE
:102210000222C1F3014102EB4101B0FBF1F010BD1C
:10222000002804BF012070472DE9F04182B0044628
:10223000007843F60006C007C4F202060CD0B0686E
:1022400000F00C00042840F081803068800303D542
:102250006068002800F06A81207880071BD5B0688C
:1022600010F00C0F09D0B06800F00C00082840F006
:1022700087807068400200F183803068800703D552
:10228000E068012840F052813068216920F0F800B0
:1022900040EAC10030602078000713D4207840075E
:1022A0002AD4A569002D00F03C81B06800F00C0034
:1022B000082840F0A180012D40F01081012002B0DB
:1022C000BDE8F0816069002840F20000C4F24720B8
:1022D00000F07E800121C0F8801EFFF7D3FD054687
:1022E000706F8007DAD4FFF7CDFD401B0228F7D9C5
:1022F000032002B0BDE8F081306C5FEAC0080AD468
:1023000000200190306C40F080503064306C00F060
:1023100080500190019847F20007C4F20007386826
:10232000C00547D4386840F480703860FFF7AAFDD4
:10233000054600BF3868C0053CD4FFF7A3FD401B2D
:102340000228F7D9032002B0BDE8F081B06800F0A0
:102350000C00082803D1706840023FF576AF606832
:10236000B0F5803F07D0B0F5A02F40F09B803068DB
:1023700040F480203060306840F4803030609BE072
:10238000E06800285CD00020C4F2472001210160F1
:10239000FFF778FD054600BF306880073FF574AF52
:1023A000FFF770FD401B0228F6D9032002B0BDE8FC
:1023B000F08100BFA068012805D0052854D1306FF6
:1023C00040F004003067306F40F00100306755E0A6
:1023D0000021C0F8801EFFF755FD0546706F80078D
:1023E0007FF55CAFFFF74EFD401B0228F6D90320B6
:1023F00002B0BDE8F08100BF0027C4F247270020EB
:102400003866FFF73FFD022D05460DD1306880018B
:1024100040F19080FFF736FD401B02284FF003008B
:10242000F4D902B0BDE8F0813068800179D5FFF7BA
:1024300029FD401B02284FF00300F5D9F1E700BF4A
:102440000020C4F2472000210160FFF71BFD054674
:10245000306880077FF51FAFFFF714FD401B02288F
:102460004FF00300F4D9DCE7316F002821F00101BF
:102470003167316F21F0040131677DD0FFF702FD34
:10248000054641F2883700BF306F800700F1868033
:10249000FFF7F8FC401BB842F6D9032002B0BDE8B4
:1024A000F08100BF3168002821F48031316031684B
:1024B00021F4802131607BD0FFF7E4FC054600BFAA
:1024C000306880033FF5C8AEFFF7DCFC401B642892
:1024D000F6D9032002B0BDE8F08100BF7068E16961
:1024E00000F480028A4221D1216A00F03F028A4230
:1024F0001CD147F6C071626A0140B1EB821F15D151
:10250000A16A4FF6FF73C903994300F44032A1F565
:1025100080318A420AD1E16A00F07060B0EB016F4D
:1025200004D1002002B0BDE8F08100BF012002B05C
:10253000BDE8F08104F11C052FCD084340EA82106C
:10254000D9034FF6FF729143A1F5803140EA05604F
:102550000843706001203866FFF794FC044600BF12
:1025600030688001DDD4FFF78DFC001B02284FF09E
:102570000300F5D955E700BFFFF784FC054641F29B
:10258000883700BF306F800708D5FFF77BFC401B02
:10259000B8424FF00300F5D943E700BFB8F1000F90
:1025A0003FF57FAE306C20F08050306479E600BF9C
:1025B000FFF768FC054600BF306880037FF54CAE2E
:1025C000FFF760FC401B64284FF00300F4D928E7B4
:1025D00070B538B10446406A30B10020206104F182
:1025E000140007E0012070BD6068B0F5827F03D061
:1025F00004F11C00002101600026A66294F851003D
:1026000020B9204684F8506000F03CF8022084F89D
:10261000510094E80F0001F48271056802F404424D
:1026200025F040050560114403F40062236911445C
:1026300003F002026369114403F00102A369E56932
:10264000114403F40072114405F03802256A114464
:1026500005F08002A56A114305F4005211430160A0
:10266000626A042101EA134102F010021144416040
:10267000C16921F40061C1610120666584F85100DF
:10268000304670BDF0B587B0006843F6000140F2F7
:102690000044C4F20001C4F2020400258842CDE9DE
:1026A0000555CDE90355029528D043F20001C4F247
:1026B000010188425ED1002043F630010190C4F24E
:1026C00002014A6942F480524A614A6902F4805226
:1026D0000192019A0190086840F0020008600868C1
:1026E00000F002000190019828200290022003903F
:1026F000012004900320059036E000BF43F630002F
:102700000195C4F202000169022641F48041016191
:102710000169032701F48041019101990195016844
:1027200041F004010160016801F004010191019987
:102730000195016841F002010160006802A900F002
:102740000200019001980C2002900520069004F5EB
:102750008060CDE903650597FFF7B6FA4FF4806016
:10276000CDE90206CDE904570520069002A92046CE
:10277000FFF7AAFA07B0F0BD2DE9F04184B01D467D
:1027800016460F460446FFF77DFB94F851100129C9
:102790000ED18046002F4FF0010018BF002E03D14C
:1027A00004B0BDE8F08100BF94F85000012803D1C7
:1027B000022004B0BDE8F081012084F8500003201D
:1027C000002184F8510061652763A686E686A1632F
:1027D000A187E187A0682164B0F5004F206861649B
:1027E00007D1016821F040010160016841F4804196
:1027F00001600168490603D4016841F040010160AD
:102800006168731EE268B1FA81F1B3FA83F3490992
:102810005B09B2F5006F41EA030139D131B137F8F4
:10282000021BC1602763E08E0138E086E08E00283D
:1028300070D0681C0BD11AE0216B31F8022BC260FA
:102840002163E08E0138E086E08E002862D02068A7
:1028500081688907F0D4FFF715FBA0EB0800A842B8
:10286000F2D338E0FFF70EFBE08E002852D020684C
:1028700081688907F6D5216B31F8022BC26021638C
:10288000E08E0138E086E08E0028F0D142E000BF03
:1028900039B139780173206B01302063E08E013843
:1028A000E086E08EB0B3681C0BD123E0216B097881
:1028B0000173206B01302063E08E0138E086E08EEA
:1028C00040B3206881688907F0D4FFF7DBFAA0EBFA
:1028D0000800A842F3D3012084F85100002084F8B6
:1028E0005000032004B0BDE8F08100BFFFF7CAFA32
:1028F000E08E78B1206881688907F7D5216B097867
:102900000173206B01302063E08E0138E086E08E99
:102910000028EFD12046022101222B46CDF800806D
:1029200002F00EFEE0B1606D40F0200060652020F6
:102930006065A06838B9002002902068C1680291E3
:10294000806802900298012084F85100002084F8E9
:102950005000606D002818BF012004B0BDE8F08170
:1029600040F21C00C2F20000006849F68171C1F219
:102970005E61A0FB0101480D4FF47A71484303905A
:102980006068B0F5827F0BD12046802100222B4663
:10299000CDF8008002F0D4FD0028C4D1C9E700BF03
:1029A00003980028C5D003980138039020688068F8
:1029B0000006BED503980028BBD0039801380390C9
:1029C000206880680006B4D503980028B1D0039829
:1029D00001380390206880680006AAD50398002873
:1029E000A7D0039801380390206880680006D7D4E8
:1029F0009FE700002DE9F04383B01E4615460F46C1
:102A00000446FFF73FFA94F851108146012909D195
:102A1000002F4FF0010018BF002D0FD103B0BDE80B
:102A2000F08300BF6068B0F5827F0DD104294FF0BC
:102A30000200F3D1A1680029EAD0EFE7002EEDD023
:102A400094F85000012803D1022003B0BDE8F083C0
:102A5000012084F8500094F85100002104281CBF84
:102A6000052084F851006165A563E687A687276382
:102A7000E6862068A686216461640168490603D45D
:102A8000016841F0400101606168731EE268B1FABB
:102A900081F1B3FA83F3DDF8288049095B09B2F5C7
:102AA000006F41EA030165D131B137F8021BC16003
:102AB0002763E08E0138E086012518F1010032D14C
:102AC00002E000BFFFF7DEF9E08E18B9E08F0028C2
:102AD00000F0B8802068816889070CD5E18E51B17B
:102AE000012D08D1216B002531F8022BC260216332
:102AF000E18E0139E1868168C907E3D0E18F0029C1
:102B0000E0D0C068A16B012521F8020BA163E08F22
:102B10000138E087D6E700BFFFF7B4F9A0EB090062
:102B2000404580F0A580E08E18B9E08F002800F0C5
:102B300089802068816889070CD5E18E51B1012D0B
:102B400008D1216B002531F8022BC2602163E18E90
:102B50000139E1868168C907DED0E18F0029DBD029
:102B6000C068A16B012521F8020BA163E08F013839
:102B7000E087D1E739B139780173206B01302063E8
:102B8000E08E0138E086012518F1010032D101E024
:102B9000FFF778F9E08E10B9E08F002852D0206856
:102BA000816889070ED5E18E61B1012D0AD1216BB3
:102BB000002509780173216B206801312163E18EC2
:102BC0000139E1868168C907E2D0E18F0029DFD0B1
:102BD000C068A16B01250870A06B0130A063E08F75
:102BE0000138E087D4E700BFFFF74CF9A0EB0900FC
:102BF00040453DD2E08E08B9E08F18B32068816867
:102C000089070ED5E18E61B1012D0AD1216B002516
:102C100009780173216B206801312163E18E01394C
:102C2000E1868168C907DFD0E18F0029DCD0C06868
:102C3000A16B01250870A06B0130A063E08F013803
:102C4000E087D1E72046022101224346CDF80090DB
:102C500002F076FCB0B1606D40F02000606520208D
:102C60006065002084F85000012003B0BDE8F083C7
:102C7000012084F85100002084F85000032003B0A4
:102C8000BDE8F08340F21C00C2F20000006849F683
:102C90008171C1F25E61A0FB0101480D4FF47A71B0
:102CA000484302906068B0F5827F21D120468021A0
:102CB00000224346CDF8009002F042FC0028CAD121
:102CC000A06838B9002001902068C168019180682F
:102CD00001900198012084F85100002084F85000F0
:102CE000606D002818BF012003B0BDE8F08300BF6D
:102CF00002980028E4D00298013802902068806889
:102D00000006DDD502980028DAD00298013802903A
:102D1000206880680006D3D502980028D0D0029899
:102D200001380290206880680006C9D50298002802
:102D3000C6D0029801380290206880680006D7D477
:102D4000BEE70000411E0020B0EB116F1CBF012048
:102D500070474EF21002CEF2000251604EF623513F
:102D6000CEF20001F0230B700721906011607047D4
:102D7000704700007047000090F83C20012A4FF097
:102D8000020254D010B580F83D200268D2F804E069
:102D9000D2F808C00C682EF07003234341F2FF7490
:102DA000C4F20004A24253600EDC40F2FF73C4F28E
:102DB00000039A4216DCB2F1804F2BD040F2004360
:102DC000C4F2000324E000BF40F2FF33C4F2010369
:102DD0009A4213DC41F60003C4F200039A4219D070
:102DE000002313E040F60003C4F200039A4211D01E
:102DF00040F60043C4F200030AE000BF44F20003BF
:102E0000C4F201039A4205D040F20043C4F2010328
:102E10009A4204D149682CF0800319439160012142
:102E2000002280F83D1080F83C20BDE8104010469C
:102E300070470000002804BF0120704710B5044609
:102E400090F83D0028B9002084F83C00204600F0AE
:102E50001FF8022084F83D002068211D02F036FD95
:102E6000012084F8460084F83E0084F83F0084F88E
:102E7000400084F8410084F8420084F8430084F85C
:102E8000440084F8450084F83D00002010BD000097
:102E900080B584B0006840F20041C4F2000188426D
:102EA0002CD040F60041C4F20001884238D0002105
:102EB000C4F20101884230D10020039043F6400063
:102EC000C4F202004168002241F001014160406803
:102ED000012100F00100039003981820FFF754F837
:102EE0001820FFF73FF8192001210022FFF74CF8C6
:102EF000192004B0BDE88040FFF734B800200290EC
:102F000043F64000C4F20200016841F00201016092
:102F1000006800F002000290029804B080BD00BF7B
:102F20000020019043F64000C4F202000168002234
:102F300041F0080101600068002100F008000190E4
:102F400001983220FFF720F8322004B0BDE880401D
:102F5000FFF708B890F83D1001291CBF0120704709
:102F6000022180F83D10006841F2FF72C168C4F28E
:102F70000002904241F00101C1600DDC40F2FF719E
:102F8000C4F20001884215DCB0F1804F2AD040F233
:102F90000041C4F2000123E040F2FF31C4F201011C
:102FA000884213DC41F60001C4F20001884219D0C6
:102FB000002113E040F60001C4F20001884211D064
:102FC00040F60041C4F200010AE000BF44F20001F3
:102FD000C4F20101884205D040F20041C4F201016F
:102FE000884206D1816801F00701062904BF00204C
:102FF0007047016841F00101016000207047000046
:1030000090F83C20012A4FF0020200F0C58080B504
:1030100080F83D20D0F800C04FF67772DCF8083019
:1030200023EA0202CCF808200B684F2B28DC1F2B68
:1030300044DD202B45D0302B43D0402B40F0AE80D8
:10304000D1F804E0C968DCF82030DCF8202022F058
:103050000102CCF82020DCF8182022F0F00242EA2D
:10306000011123F00A0242EA0E02CCF81810CCF843
:103070002020DCF8081041F0470121F0300180E009
:103080006F2B27DDB3F5005F48D0B3F5805F7AD0B2
:10309000702B40F08380D1E901E3C968DCF8082097
:1030A00043EA0E0322F47F4243EA01211143CCF8A4
:1030B0000810DCF8081041F0770162E00BB1102B2A
:1030C0006CD1DCF8081021F07001194341F00701C0
:1030D00057E000BF502B35D0602B5FD1D1F804E012
:1030E000C968DCF82030DCF8202022F01002CCF88F
:1030F0002020DCF8182022F4704242EA013123F04B
:10310000A00242EA0E12CCF81810CCF82020DCF80D
:10311000081041F0670121F0100132E0D1E901E32C
:10312000C968DCF8082043EA0E0322F47F4243EA30
:1031300001211143CCF80810DCF8081041F480415B
:103140001FE000BFD1F804E0C968DCF82030DCF8EB
:10315000202022F00102CCF82020DCF8182022F0F8
:10316000F00242EA011123F00A0242EA0E02CCF810
:103170001810CCF82020DCF8081041F0570121F09D
:103180002001CCF808100022012180F83D10002118
:1031900080F83C10BDE88040104670470122F3E7FC
:1031A000002804BF012070472DE9F047044690F83D
:1031B0003D000D4628B9002084F83C00204600F070
:1031C00049F8022084F83D00206844F20702816833
:1031D00091438160211D02F079FB20684FF6FF7852
:1031E00081688269D0F820C0D5E9003ED5E9026A3D
:1031F00043EA0109AB6922EA080246EA03234FF6D3
:10320000FC46B343D5E9076742EA0A0229691A4333
:1032100042EA062242EA01112CF0AA026B6942EA54
:103220000E0241EA073142EA0312C0F808908161B8
:103230000262012084F8460084F83E0084F83F00D2
:1032400084F8420084F8430084F83D000020BDE883
:10325000F087000010B586B0006840F60002C4F2A6
:10326000000200219042CDE90411CDE90211019143
:1032700022D0B0F1804F52D1002043F630010090AF
:10328000C4F202010A691C2442F001020A610A69BF
:1032900002F001020092009A00900868032240F0B8
:1032A000010008600868012100F00100009000980A
:1032B0000020C4F2020020E043F630000091C4F286
:1032C000020002691E2442F004020261026902F057
:1032D00004020092009A009101684FF4405241F0BC
:1032E000080101600068022100F0080000900098C9
:1032F0000020C4F2020000F5406001920222029216
:103300000022059101A9CDE90322FEF7DDFC20464C
:1033100000210022FEF738FE2046FEF723FE06B00D
:1033200010BD000080B590F83E2090F83F3090F836
:1033300042E090F843C004290AD0B9B9012A4FF0FD
:10334000010208BFBEF1010F34D0104680BD00BF9E
:10335000012B4FF0010208BFBCF1010FF5D1022192
:1033600080F83F1080F8431000681EE0012A4FF0FB
:10337000010208BF012BE8D1BEF1010FE5D1BCF17C
:10338000010FE2D1022280F83E2080F83F2080F831
:10339000422080F8432091B10068016A21F00101C8
:1033A0000162016A41F00101016210216FF0100217
:1033B00009E000BF022180F83E1080F8421000684A
:1033C00001216FF00102036A1A400262026A11438E
:1033D00001620168002241F001010160104680BDD8
:1033E0007047000070B504460068C5680669B107FB
:1033F00016D515F0020113D06FF002010161012111
:1034000021778069800703D02046FFF7E9FF05E0B8
:10341000204600F08FF8204600F0D0F900202077F9
:10342000700719D515F0040016D020686FF004015C
:10343000016102212177806910F4407F04D0204689
:10344000FFF7CEFF06E000BF204600F073F82046ED
:1034500000F0B4F900202077300717D515F00800E8
:1034600014D020686FF00801016104212177C06940
:10347000800703D02046FFF7B3FF05E0204600F0A9
:1034800059F8204600F09AF900202077F00619D567
:1034900015F0100016D020686FF0100101610821AE
:1034A0002177C06910F4407F04D02046FFF798FFD1
:1034B00006E000BF204600F03DF8204600F07EF90F
:1034C00000202077F00718BF15F0010002D1300668
:1034D00009D412E020686FF001010161204600F07C
:1034E000FFF9300609D515F0800006D020686FF08E
:1034F000800101612046FFF73BFC700609D515F0FD
:10350000400006D020686FF040010161204600F0C5
:1035100001FAB00658BF70BD15F0200008D0216830
:103520006FF0200220460A61BDE87040FFF722BC20
:1035300070BD00007047000090F83C30012B04BFC4
:10354000022070474FEAB202032A00F201812DE9FE
:10355000F043DFE802F0033F7FBF00BF036840F2A3
:1035600000461C6A1A6A24F0020422F001021A6260
:103570001A46D3F804C052F818EF8F6843F48065F8
:10358000C4F20106B54244EA070405D1CF6824F02D
:103590000C0427F004073C430F68B54206D1D1E97B
:1035A00005582CF440762E4346EA080C2EF073069C
:1035B0003743C3F804C09F614F6809695F631C62A9
:1035C0009F6947F008079F619F6927F004079F6183
:1035D000B2E000BF036840F200481C6A1A6A24F097
:1035E000200422F010021A621A46D3F804C052F8DE
:1035F00018EF8F6843F48065C4F20108454544EA3A
:10360000071407D1CF686FF0400624F0C00406EA23
:1036100007163443D1F80090454506D1D1E9055647
:103620002CF440672E4347EA860C2EF4E64747EA1F
:103630000927C3F804C09F614F6809699F631C6232
:103640009F6947F400679F619F6927F480679F61C6
:1036500071E000BF036840F200481C6A1A6A24F453
:10366000007422F480721A621A46D3F804C052F829
:103670001CEF8F6843F48065C4F20108454544EAB5
:10368000072408D1CF6840F2FF463F0224F440648B
:1036900027EA06063443D1F80090454506D1D1E922
:1036A00005562CF440572E4347EA061C2EF07307AC
:1036B00047EA0907C3F804C0DF614F680969DF639F
:1036C0001C62DF6947F00807DF61DF6927F0040744
:1036D000DF6131E0036840F20045D3F820C01A6A88
:1036E00043F4806722F480521A621A465C6852F8EA
:1036F0001CEFD1F800808E68C4F20105AF4204D1FE
:103700004D6924F4804444EA85142CF4005747EAB8
:1037100006372EF4E64646EA08265C60DE614E680F
:1037200009691E641F62DF6947F40067DF61DF69B2
:1037300027F48067DF6109021368194311600021D3
:10374000BDE8F043002280F83C200846704700BFE7
:103750000121002280F83C2008467047002804BF61
:103760000120704710B5044690F83D0028B90020AC
:1037700084F83C00204600F01FF8022084F83D0049
:103780002068211D02F0A2F8012084F8460084F888
:103790003E0084F83F0084F8400084F8410084F83B
:1037A000420084F8430084F8440084F8450084F81B
:1037B0003D00002010BD0000704700007047000071
:1037C00041B1082910D0042914BF00F1410200F1D1
:1037D0003F020BE090F83E20012A1CBF01207047F9
:1037E000022280F83E2013E000F140021278012A04
:1037F0001CBF012070470222082907D0042914BFEA
:1038000080F8412080F83F2002E000BF80F840208F
:10381000006801F01F010122036A02FA01F123EAA4
:1038200001020262026A114341F2FF72C4F2000215
:103830009042016210DC40F2FF71C4F20001884244
:103840001CDCB0F1804F3FD040F20041C4F20001D7
:10385000884239D03DE000BF40F2FF31C4F201019F
:10386000884219DC41F60001C4F2000188422BD0E5
:103870000021C4F2010188421AD02AE040F600017A
:10388000C4F2000188421FD040F60041C4F200019A
:10389000884219D01DE000BF44F20001C4F20101CA
:1038A000884211D040F20041C4F20101884210D197
:1038B000416C40F2004340F48062C4F2010341F4E1
:1038C00000419A42416404D1816801F00701062950
:1038D00003D0016841F00101016000207047000041
:1038E000B0B540F600450446C4F20005006805F591
:1038F0007441884206D142F2A440C2F2000001F0B5
:103900004BF82068A84218BFB0BDBDE8B04003F036
:103910003FBB00007047000070B582B0044690F8CD
:10392000420020280AD113460A4600294FF0010020
:1039300018BF002B06D102B070BD00BF022002B03C
:1039400070BD00BF2063002622206663A262A385AB
:10395000666484F84200E06B45F6993C45F6F9450B
:103960002168C0F6000CC0F60005C0E90FC545F699
:103970001D25C0F600050431C0E91356FEF73EF9D7
:10398000E0B310206064202084F842000120216B05
:10399000012940F0B3800021009121680A6800925B
:1039A00049680091009900BF216851E8031F22680F
:1039B00041F0100142E80313002BBCD0216851E80C
:1039C000031F226841F0100142E80313002BB2D01C
:1039D000216851E8031F226841F0100142E80313F7
:1039E000002BA8D0216851E8031F226841F0100184
:1039F00042E80313002BD7D19DE700BF0196206852
:103A000001680191406801900198206930B300BFBE
:103A1000206850E8030F216840F4807041E80302F9
:103A2000E2B1206850E8030F216840F4807041E85B
:103A300003029AB1206850E8030F216840F48070B7
:103A400041E8030252B1206850E8030F216840F4B6
:103A5000807041E80302002ADAD100BF206850E8F4
:103A6000050F216840F0010041E80502BAB3206863
:103A700050E8050F216840F0010041E8050272B3EB
:103A8000206850E8050F216840F0010041E8050278
:103A90002AB3206850E8050F216840F0010041E892
:103AA0000502002ADAD11AE0206850E8050F2168E3
:103AB00040F0400041E80502DAB1206850E8050F07
:103AC000216840F0400041E8050292B1206850E8CA
:103AD000050F216840F0400041E805024AB1206826
:103AE00050E8050F216840F0400041E80502002A37
:103AF000DAD10020216B01293FF44DAF012002B043
:103B000070BD0000036841F20002C4F2010293425A
:103B10000CD140F2D223C2F2000340F2D02C198023
:103B2000C2F2000C01238CF80030036802F58060BB
:103B3000834218BF704740F27820C2F20000017043
:103B400040F27920C2F200000121017070470000AC
:103B500070470000B0B582B0044600680168C368D1
:103B6000426901F02F05202D03F0200506D12DB16B
:103B7000204602B0BDE8B04002F0CAB85FEA017C5E
:103B80001EBF02F0010E03F4907212EB0E0243D13D
:103B9000226BCD0618D5012A16D113F0100213D0CE
:103BA00000210191016801914168019101994069E9
:103BB00040063BD4A08DE18DE28D002A18BF8842DB
:103BC00040F0FE8102B0B0BD0A0640F1E98013F07A
:103BD000800200F0E58094F841102129F2D1A1681B
:103BE000B1F5805F03D12169002900F06F82216A5D
:103BF0004A1C226209784160E18C01390A04E1849F
:103C0000E0D1C16821F08001C160C16841F040018C
:103C1000C16002B0B0BD00BFCA0718BF13F4807204
:103C200040F0DC804A0700F1DF80E4E0E06B0168EF
:103C30004A68A38D91B2002900F0C680994280F0B5
:103C4000C380E285C069B0F5807F00F09C80206869
:103C500050E8030F216820F4807041E80302DAB1D4
:103C6000206850E8030F216820F4807041E80302C7
:103C700092B1206850E8030F216820F4807041E879
:103C800003024AB1206850E8030F216820F48070D5
:103C900041E80302002ADAD1206850E8050F2168C4
:103CA00020F0010041E80502DAB1206850E8050F74
:103CB000216820F0010041E8050292B1206850E837
:103CC000050F216820F0010041E805024AB1206893
:103CD00050E8050F216820F0010041E80502002AA4
:103CE000DAD1206850E8050F216820F0400041E853
:103CF0000502DAB1206850E8050F216820F0400085
:103D000041E8050292B1206850E8050F216820F0D3
:103D1000400041E805024AB1206850E8050F2168DB
:103D200020F0400041E80502002ADAD1202084F882
:103D3000420000202063206850E8030F216820F033
:103D4000100041E80302DAB1206850E8030F21684F
:103D500020F0100041E8030292B1206850E8030F00
:103D6000216820F0100041E803024AB1206850E8C1
:103D7000030F216820F0100041E80302002ADAD185
:103D8000E06BFDF74FFD02206063A08DE18D401ACE
:103D900081B2204602B0BDE8B040FFF7B3BE00BF1D
:103DA00049067FF50FAF13F040013FF40BAFC16838
:103DB00021F04001C1602021204684F8411002B06A
:103DC000BDE8B04000F098BB8B427FF4FBAEC06909
:103DD000B0F5807F7FF4F6AE02226AE1626C42F0B9
:103DE000010262644A0706D5BEF1000F03D0626C7F
:103DF00042F0020262648A0706D5BEF1000F03D0CA
:103E0000626C42F004026264BCF1000F06D55EEA07
:103E1000050203D0626C42F008026264626C002A00
:103E20003FF4D0AE890604D51DB1204601F070FFE5
:103E300020684069616C00F0400001F00801401802
:103E400000F0B680206850E8030F216820F49070DD
:103E500041E80302BAB3206850E8030F216820F458
:103E6000907041E8030272B3206850E8030F2168A4
:103E700020F4907041E803022AB3206850E8030F51
:103E8000216820F4907041E80302002ADAD11AE098
:103E9000206850E8050F216820F0010041E8050284
:103EA000DAB1206850E8050F216820F0010041E8F0
:103EB000050292B1206850E8050F216820F001004A
:103EC00041E805024AB1206850E8050F216820F05A
:103ED000010041E80502002ADAD1206B012824D133
:103EE000206850E8030F216820F0100041E8030229
:103EF000DAB1206850E8030F216820F0100041E893
:103F0000030292B1206850E8030F216820F01000EE
:103F100041E803024AB1206850E8030F216820F00D
:103F2000100041E80302002ADAD1202084F8420080
:103F30000020206320684069400640F1C18020686D
:103F400050E8050F216820F0400041E80502DAB191
:103F5000206850E8050F216820F0400041E8050284
:103F600092B1206850E8050F216820F0400041E838
:103F700005024AB1206850E8050F216820F0400092
:103F800041E80502002ADAD1E06B002800F09880B1
:103F900045F61121C0F600010165FDF78BFC0028F4
:103FA0003FF410AEE06B016D02B0BDE8B0400847D1
:103FB0002046FFF7CDFD0020606402B0B0BD00BF19
:103FC000401A00BF216851E8031F226821F4907154
:103FD00042E80313BBB3216851E8031F226821F4B0
:103FE000907142E8031373B3216851E8031F2268FC
:103FF00021F4907142E803132BB3216851E8031FA9
:10400000226821F4907142E80313002BDAD11AE000
:10401000216851E8051F226821F0010142E80513DB
:10402000DBB1216851E8051F226821F0010142E857
:10403000051393B1216851E8051F226821F00101A1
:1040400042E805134BB1216851E8051F226821F0B1
:10405000010142E80513002BDAD1202184F8421037
:1040600000212163216851E8031F226821F010011B
:1040700042E80313DBB1216851E8031F226821F0F5
:10408000100142E8031393B1216851E8031F22682D
:1040900021F0100142E803134BB1216851E8031FDE
:1040A000226821F0100142E80313002BDAD102222A
:1040B00081B22046626302B0BDE8B040FFF722BD86
:1040C000204602B0BDE8B040FFF742BD216A31F89A
:1040D000022B6FF35F22426021628DE5002804BF4E
:1040E0000120704710B5044690F8410028B900201F
:1040F00084F84000204600F021F8242084F8410094
:104100002068C16821F40051C160204601F080FEA2
:104110002068016921F490410161416921F02A017F
:104120004161C16841F40051C160002020216064F8
:1041300084F8411084F84210606310BD2DE9F0430B
:1041400087B00446006844F20041C4F20001002632
:104150008842CDE90566CDE90366029674D041F246
:104160000041C4F20101884200F0B28041F2000136
:10417000C4F20101884240F0FB8043F63000019612
:10418000C4F20200416946F2284841F01001416141
:104190004169C4F2020801F01001019101990196F0
:1041A000016841F001010160006802A900F001000E
:1041B000019001984FF4C06002900220CDE90306FF
:1041C00003200590072006900020C4F20200FDF7AE
:1041D0007BFD42F2940508F11800C2F200054FF091
:1041E00000674FF48069C5E900072846C5E9026603
:1041F000C5E90496C5E90666C5E90866FDF74CFC05
:10420000002818BFFDF78AF8E563AC6342F2F405B5
:1042100008F19000C2F200054021C5E9000705F150
:10422000080080E842022846C5E90566C5E9076638
:104230006E62FDF731FC002818BFFDF76FF8A5632B
:10424000AC6325248CE000BF43F630000196C4F235
:1042500002000169002441F4003101610169C4F2E6
:10426000020401F40031019101990196016802AD47
:1042700041F00101016001684FF0020801F0010105
:1042800001910199019601684FF0030941F008017D
:1042900001600068072700F00800019001980820DD
:1042A000029020462946CDE90386CDF81490069762
:1042B000FDF70AFD2020CDE9020804F540602946FB
:1042C000CDE904690697FDF7FFFC262448E000BF0E
:1042D00043F630000196C4F20200416941F020012A
:1042E0004161416901F02001019101990196016844
:1042F00041F004010160006802A900F0040001908F
:104300000198C02002900220CDE903060320059009
:10431000082006900020C4F2020000F50060FDF7BE
:10432000D3FC42F2541546F22840C2F20005C4F212
:1043300002004FF020614FF4806285E84300284678
:10434000C5E90362C5E90566C5E907666E62FDF762
:10435000A3FB002818BFFCF7E1FFE563AC6347242B
:10436000204600210022FDF70FFE2046FDF7FAFD52
:1043700007B0BDE8F0830000704700007047000000
:104380002DE9F041044690F8410020281CBF02208E
:10439000BDE8F0810D4600294FF0010000F0AA8031
:1043A0001646002A08BFBDE8F08100206064212085
:1043B000984684F84100FDF765FDA684E684A1686F
:1043C0000646B1F5805F02D12069002862D02F46F1
:1043D0000025E08C002861D018F1010018D0B8F158
:1043E000000F37D1216808E017F8010B4860E08C16
:1043F0000138E084E08C002851D00868000673D5AD
:10440000002FF1D135F8020B00276FF35F20EDE7A5
:10441000216802E00868000609D40868000606D48E
:10442000086800065CBF08685FEA0060F2D51FB14B
:1044300017F8010B05E000BF35F8020B00276FF3FA
:104440005F204860E08C0138E084E08C0028E4D1F3
:1044500025E000BF216800BF0868000608D4FDF70A
:1044600011FD801B404541D82168C868F4E700BFB2
:1044700017B117F8010B04E035F8020B00276FF3B2
:104480005F204860E08C0138E084E08C0028E3D1B4
:1044900005E000BF0027E08C00289DD12168086856
:1044A00040061FD4B8F1000F1ED018F101000FD143
:1044B0000868400616D40868400613D40868400609
:1044C00010D4086840064FF00000F1D50FE000BF9F
:1044D000FDF7D8FC801B404508D82068C1680068FB
:1044E0004006F5D5002002E0FDF7CCFC032020219A
:1044F00084F84110BDE8F08170470000FEE700003D
:1045000040F60000C4F202000121FDF7ADBC00003E
:104510002DED108B40F2F820C2F2000090ED023A2F
:1045200090ED024A90ED025A90ED036A63EE044A60
:1045300065EE067A90ED025A90ED046A90ED023A2B
:1045400090ED053A90ED033A90ED034A90ED037A31
:1045500090ED047A90ED037AD0ED053AD0ED045A4F
:10456000D0ED046A23EE048A65EEA66A90ED043A63
:1045700090ED054AD0ED055A90ED059A416823EE7D
:1045800004AA816265EE895A22EE023A21EEA14A1E
:1045900090ED059A90ED05BA90ED04CA90ED04DA1D
:1045A00034EE033A22EEA24A34EE033A2CEE0D4AE0
:1045B00029EE0B9A39EE044A34EE044AB7EE00BAFB
:1045C00040F26C3245F6DF113BEE444AC2F2000283
:1045D000C5F6377113EE103A82ED004AA1EB630382
:1045E000BEEE004A23EE043A09EE103A23EE093AF1
:1045F00023EE09CAB7EE083A90ED02DA90ED05EA2B
:1046000090ED03FAD0ED048A3CEE03CA2CEE099A31
:104610002FEE28CA2DEE0EDA3CEE4DCA3CEE0CCA47
:1046200082ED01CA90ED02CA90ED04DA90ED03EA42
:1046300090ED05FA77EE8A7A2FEE0EAA2CEE0DCACF
:104640003CEE4AAA3AEE0AAA82ED02AA90ED02AA2C
:1046500090ED05CA90ED03DA90ED04EA74EEC84AD5
:104660002DEE0E8A2AEE0CAA3AEE088A38EE088A57
:1046700082ED038A90ED058A90ED05AA90ED03CABC
:1046800090ED03DA74EEE64A6CEE0D6A28EE0A8AC3
:1046900078EE266A76EEA66A7BEE666AC2ED046A5A
:1046A000D0ED026A90ED038A90ED04AA90ED05BA70
:1046B00074EEA55A6AEE0B4A66EE886A34EEE68A14
:1046C00069EE024A69EE226A77EEA72A22EEA62A4E
:1046D00064EEA57A37EEC22AB5EE402A78EE087A63
:1046E000F1EE10FAC2ED057A5BD025EE065A27EE00
:1046F000237A37EE455A29EE216A35EE057A25EE02
:10470000865A66EE871A31EEC55AB5EE405AF1EE7A
:1047100010FA46D027EE247A26EE226A36EE476A51
:10472000B5EE406AF1EE10FA3BD0DFED631ADFED33
:10473000632A90ED067A62EE213A63EEA23A33EEF6
:10474000877A80ED067A90ED077A65EE213A63EE7E
:10475000A23A33EE877A80ED077A90ED087A66EE1A
:10476000211A61EEA21A31EE877A80ED087AB6EE50
:10477000007A22EE072AD0ED061A32EE000A25EE64
:10478000072A90ED075A32EE202A72EE050A26EE2D
:10479000072A90ED085A32EE011A30EE210A31EE66
:1047A000051A90ED022A90ED035A90ED046A90EDFF
:1047B000057A20EE866A25EE405A35EE465A27EEF7
:1047C000016A9FED3E7A35EE465A90ED036AD0EDD0
:1047D000021AD0ED042A25EE075A32EE052A21EE00
:1047E000225AD0ED052A61EE801A31EE855A62EE2A
:1047F000A01A35EE615AD0ED041AD0ED022AD0EDA0
:10480000033A25EE075A36EE055A21EE236AD0ED1B
:10481000053A62EEA02A32EEC66A63EE802A32EED4
:10482000866A26EE076AD0ED052AD0ED023AD0ED71
:10483000034A31EE866AD0ED041A60EEA40A23EE34
:10484000811A31EE201A21EE800A31EE400A20EE64
:10485000070A25EE051A22EE027A32EE800A37EEBA
:10486000011A26EE067A37EE011A20EE007A37EEAC
:10487000011A11EE102AA1EB620107EE101A21EEC7
:10488000041A21EE071A21EE071A31EE031A21EE5F
:10489000071A22EE012A80ED022A25EE012A80ED78
:1048A000032A26EE012A20EE010A80ED042A80ED7B
:1048B000050ABDEC108B70476F12833A0AD7A33BF1
:1048C000F0B58DB007460AA807A902F03DF807AE7B
:1048D00040F26C300AAB70CEC2F200000ECB40F852
:1048E000244F00E90E000021C16004AA01AB64213D
:1048F000C0E9015602F030F99DED041A40F2F820AB
:104900009FED230AC2F20000016BB4EE401AF1EEF3
:1049100010FA1BDA9DED051AB4EE401AF1EE10FA0A
:1049200014DA9DED061AB4EE401AF1EE10FA0DDA23
:1049300063290BDB01AB0ECB00F1680C8CE80E0099
:1049400000218161C161016203E000BF632901DCD4
:10495000013101630AAB0ECB9DED071A87E80E000B
:1049600090ED1A0A9DED082A31EE400A87ED030A00
:1049700090ED1B0A9DED091A32EE400A87ED040AFC
:1049800090ED1C0A31EE400A87ED050A0DB0F0BD2E
:104990000AD7A33C000000002DE9F0412DED108B5B
:1049A00084B040F26C3480460020C2F200040390D0
:1049B0000290019004F13400FFF782FF94ED111A88
:1049C0009FED653A94ED100A94ED122A9FED634A2B
:1049D00021EE031A20EE030AC1EE040A22EE031AA6
:1049E00080EE040A81EE041A04F13400D0EC031ABC
:1049F000FFF78EFD40F2F820C2F2000090ED020AAF
:104A000090ED039A90ED04AA90ED05BA39EE091ADB
:104A100030EE00CA2CEE0B0A21EE0A1A31EE000A23
:104A200010EE100AFCF71BF8B8EE00EA2AEE0E0AA8
:104A30002BEE0E1A2BEE011A20EE0A0A30EE010AB6
:104A4000B7EE00DA30EE0D0A41EC180B10EE100A4A
:104A5000FCF705F841EC110BB0EE480AF0EE680ADD
:104A600003F0D6FA51EC100B9FED350B57EC104BC1
:104A700022463B46FBF701FF9FED330B55EC106BD5
:104A800032462B46FBF76BFFFBF7FCFF29EE0EEAE5
:104A90002CEE0A0A2EEE0B1A31EE000AC8F80000BE
:104AA00010EE100AFBF7DBFF41EC100B02F094FF55
:104AB00051EC100B22463B46FBF7DFFE32462B46FD
:104AC000FBF74DFFFBF7DEFF3AEE0AFA2CEE090A80
:104AD0002FEE0B1A31EE000AC8F8040010EE100A8F
:104AE000FBF7BDFF2AEE0F0A2EEE091A31EE400A3F
:104AF00030EE0D0A41EC180B10EE100AFBF7AFFF79
:104B000041EC110BB0EE480AF0EE680A03F080FAAF
:104B100051EC100B9FED0E0B53EC102BFBF7ADFE81
:104B200032462B46FBF71BFFFBF7ACFFC8F808002B
:104B300004B0BDEC108BBDE8F08100BF00BF00BF2A
:104B400000000000008066C000000060FB210940FA
:104B50000000000000806640DB0F49400000344345
:104B600080B501F0E9FC28B10BA0BDE8804004F05D
:104B700095B800BF40F2F820C2F200004FF07E511D
:104B800081600021C160016141618161C161016297
:104B900041684162816280BD494D55204552524F66
:104BA0005221210D0000000010B584B041F6EC70D8
:104BB00042F2000C01220021C2F20000C4F2010CFA
:104BC0004FF400330124C0F600720391047680F89C
:104BD0002010C0E90A21C46180F83040C0E900C358
:104BE000C0E90211C0E90414FCF746FC002818BF14
:104BF000FCF794FB0220CDE900040620029041F668
:104C0000EC70C2F200006946FCF78CFB002818BF6C
:104C1000FCF784FB04B010BD80B582B00020019089
:104C200043F63000C4F202000168002241F4800122
:104C300001600068002100F4800001900198382094
:104C4000FDF7A2F93820FDF78DF939200021002267
:104C5000FDF79AF93920FDF785F93A200021002265
:104C6000FDF792F93A20FDF77DF946200021002258
:104C7000FDF78AF9462002B0BDE88040FDF772B921
:104C80002DE9F04F87B0002443F63000CDE905440C
:104C90000194C4F20200016840F2004841F01001A2
:104CA00001600168C4F2020801F01001019101994C
:104CB0000194016808F5806741F004010160016812
:104CC000012201F00401019101990194016801257B
:104CD00041F080010160016801F0800101910199BA
:104CE0000194016841F001010160016801F00101D6
:104CF000019101990194016841F00201016001688C
:104D000001F00201019101990194016841F008014B
:104D100001600068032100F0080001900198384606
:104D2000FDF7AAF8A8F580694846302100224FF027
:104D3000300BFDF7A1F808F5006A504640F698419F
:104D40000022FDF799F8404610210022FDF794F863
:104D5000404640210122FDF78FF87F2002AECDE9C9
:104D6000020408F5406031460494FCF7ADFF4FF4AF
:104D70000050CDE90204384631460494FCF7A4FF04
:104D80000320CDE9020538463146CDE90454FCF74D
:104D90009BFF48463146CDE902B5CDE90444FCF716
:104DA00093FF4FF44060CDE9020550463146CDE90E
:104DB0000444FCF789FF9820CDE9020550463146AE
:104DC000CDE90454FCF780FF1020CDE902054046F0
:104DD0003146CDE90454FCF777FF4020CDE90205C8
:104DE00002200590404631460495FCF76DFF07B060
:104DF000BDE8F08F70B542F2B41043F2000CC2F27D
:104E00000000C4F2010C4FF482724FF40043002101
:104E10004FF0020E01244FF400751026C0E900C2C5
:104E20000A22C0E90231C0E904E4C0E90656C0E93B
:104E30000811C0E90A12FDF7CBFB002808BF70BDBE
:104E4000BDE87040FCF76ABAB0B542F20C2043F6F8
:104E50000001C2F20000C4F200014FF4827200238C
:104E600080E80E0000F10C014FF0020C4FF0010E33
:104E70004FF40074202581E808500A21C0E9064556
:104E8000C0E90833C0E90A31FDF7A2FB002808BFDA
:104E9000B0BDBDE8B040FCF741BA000080B586B0B7
:104EA00042F2642000220021C2F20000C4F201029A
:104EB000A72342F20F7C0591CDE90311CDE9001142
:104EC000C0E90023C0E9021CC0E904118161FDF7BB
:104ED000B1FF002818BFFCF721FA4FF48050029070
:104EE00042F26420C2F2000002A9FEF789F800280D
:104EF00018BFFCF713FA42F26420C2F200006946C0
:104F0000FDF73AFF002818BFFCF708FA06B080BD8D
:104F100080B58CB042F2AC200021C2F200004FF00C
:104F20008042C0E9002103224FF0FF33CDE9032185
:104F30000122CDE90011C0E9021301618161CDE9CF
:104F40000521CDE90711CDE909210B9103A9FEF750
:104F500027F9002818BFFCF7E1F942F2AC20C2F2B1
:104F600000006946FDF708FF002818BFFCF7D6F9D6
:104F70000CB080BDB0B594B042F2F42040F20045D0
:104F80000021C2F200004FF47A73C4F200050E91C2
:104F9000CDE90C110991CDE90711CDE90511CDE954
:104FA0000311CDE901115322C0E9021301618021EF
:104FB000C0E900528161FDF73DFF002818BFFCF7F2
:104FC000ADF94FF480500B9042F2F420C2F2000091
:104FD0000BA9FEF715F8002818BFFCF79FF942F25D
:104FE000F420C2F20000FEF7B9FB002818BFFCF75E
:104FF00095F942F2F4200024C2F2000008A9CDE99C
:105000000844FDF7B9FE002818BFFCF787F96020B7
:10501000CDE9010442F2F420C2F2000001A900220D
:1050200003940594FEF788FA002818BFFCF776F978
:1050300042F2F424C2F2000401A920460422FEF741
:105040007BFA002818BFFCF769F92068A84201D054
:1050500014B0B0BD002043F630010F90C4F202013D
:105060000A6842F001020A60096801F001010F912B
:105070000F99C0210F910221CDE91010CDE9120145
:1050800005F5FE300FA9FCF71FFE14B0B0BD0000FF
:1050900080B58CB042F23C3040F600020021C2F2F2
:1050A0000000C4F20002C0E9002103224FF6FF73A2
:1050B000CDE903210122CDE90011C0E9021301610C
:1050C0008161CDE90521CDE90711CDE909210B91D8
:1050D00003A9FEF765F8002818BFFCF71FF942F294
:1050E0003C30C2F200006946FDF746FE002818BFBA
:1050F000FCF714F90CB080BD80B586B042F2843064
:1051000040F600420021C2F20000C4F20002532324
:105110004FF0630C0591CDE90311CDE90011C0E911
:105120000023C0E9021C01618161FDF783FE0028B4
:1051300018BFFCF7F3F84FF48050029042F284302D
:10514000C2F2000002A9FDF75BFF002818BFFCF7C0
:10515000E5F842F28430C2F200006946FDF70CFE29
:10516000002818BFFCF7DAF806B080BD80B542F21F
:10517000CC3041F20001C2F20000C4F20101002370
:105180004FF00C0C4FF4E13280E80E00C0E903331D
:10519000C0E905C3C361FEF7A1FF002808BF80BDB9
:1051A000BDE88040FCF7BAB880B542F2144044F242
:1051B0000041C2F20000C4F2000146F6A002002342
:1051C0004FF00C0CC0F2060280E80E00C0E9033379
:1051D000C0E905C3C361FEF781FF002808BF80BD99
:1051E000BDE88040FCF79AB880B542F25C4041F2DD
:1051F0000041C2F20000C4F2010100234FF00C0C88
:105200004FF4E13280E80E00C0E90333C0E905C382
:10521000C361FEF763FF002808BF80BDBDE8804082
:10522000FCF77CB8FEE7000010B540F2E404C2F2DF
:10523000000420460721002201F0CAF842F2307033
:10524000C2F200000121C0E90044C0E90244017437
:1052500010BD000042F2307040F25C01C2F200006A
:10526000C2F20001AFF300802DE9F0410446007C5A
:10527000002808BFBDE8F08167688846A7B3D4E975
:1052800002234FF0FF3000264FF0FF31974208BF56
:1052900030469F423F6908BF314607B3974206F147
:1052A000010608BF30469F423F6908BF3146B7B18B
:1052B000974206F1010608BF30469F423F6908BF8A
:1052C000314667B1974206F1010508BF28469F4263
:1052D0003F6908BF2946002F06F10206D6D1884251
:1052E00006DAA068E0601CE04FF0FF304FF0FF31BD
:1052F0000731884215DBA1684869E16088B14169DE
:10530000E06071B14869E16058B14169E06041B164
:105310004869E16028B14169E060002908BF0146A1
:10532000E16040460021002601F03AFEE76857B1EF
:10533000A06887420AD03B6840461921002202F04B
:1053400095F83F69D7B92674BDE8F081404602213F
:1053500047F67C5240F2CF1302F010F93B6840460A
:105360001921002202F082F84046022147F67C52C1
:10537000002302F003F93F69002FE4D0A0688742C0
:1053800008D03B6840461921182202F06FF83F69A7
:10539000C7B9D8E74046022147F67C5240F2CF1306
:1053A00002F0ECF83B6840461921182202F05EF842
:1053B0004046022147F67C52002302F0DFF83F69A5
:1053C000002FC0D0A068874208D03B684046192112
:1053D000302202F04BF83F69C7B9B4E740460221DA
:1053E00047F67C5240F2CF1302F0C8F83B684046C3
:1053F0001921302202F03AF84046022147F67C5249
:10540000002302F0BBF83F69002F9CD0A0688742C0
:1054100008D03B6840461921482202F027F83F692E
:10542000CFB990E74046022147F67C5240F2CF13B5
:1054300002F0A4F83B6840461921482202F016F811
:105440004046022147F67C52002302F097F83F695C
:10545000002F3FF478AFA068874209D03B684046F0
:105460001921602202F002F83F69D7B96BE700BF4B
:105470004046022147F67C5240F2CF1302F07EF8FC
:105480003B6840461921602201F0F0FF40460221AE
:1054900047F67C52002302F071F83F69002F3FF479
:1054A00052AFA068874209D03B6840461921782254
:1054B00001F0DCFF3F69D7B945E700BF4046022154
:1054C00047F67C5240F2CF1302F058F83B68404652
:1054D0001921782201F0CAFF4046022147F67C528A
:1054E000002302F04BF83F69002F3FF42CAFA06877
:1054F000874209D03B6840461921902201F0B6FF4F
:105500002674BDE8F08100BF4046022147F67C5278
:1055100040F2CF1302F032F83B6840461921902246
:1055200001F0A4FF4046022147F67C52002302F01E
:1055300025F82674BDE8F081FEE700007047000002
:105540002DE9F04381B0089C984615460E468146E9
:10555000FCF798FC201A00EB0804FCF793FC40F2DF
:105560001C01C2F200010968C1F3CB316143009113
:10557000D9F800108A683240921BB2FA82F25209BE
:10558000AA4203D1002001B0BDE8F083074618F11C
:1055900001000ED130E000BF009801380090D9F82A
:1055A000000080683040801BB0FA80F04009A842BB
:1055B000E8D0FCF767FCC01BA04227D20098002867
:1055C000EAD10024EBE700BF88683040801BB0FAC6
:1055D00080F04009A842D5D088683040801BB0FADE
:1055E00080F04009A842CDD088683040801BB0FAD6
:1055F00080F04009A842C5D088683040801BB0FACE
:1056000080F04009A842DFD1BCE700BFD9E9000122
:105610004268B1F5827F22F0E00242600BD1D9F8F6
:105620000810B1F5004F02D0B1F5806F03D10168C9
:1056300021F040010160D9F82810B1F5005F07D1D1
:10564000016821F400510160016841F400510160DA
:10565000012089F85100002089F85000032001B092
:10566000BDE8F0837047000040F27020C2F20000F5
:10567000052101707047000070B540F27024C2F23D
:1056800000042078002808BF70BD40F2E010C2F28C
:10569000000000F10805002606E000BF2078013672
:1056A000864205F10C050DD2FCF7ECFB55E9011221
:1056B000606011448842F1D355F8081C286088477F
:1056C000ECE700BF70BD0000B0B540F2CA25C2F2E1
:1056D00000052A7804461AB128782046B0BD00BFDC
:1056E000032C13D0012C1DD0002CF6D141F6EA700A
:1056F000C2F20000008800220B28B1FA81F04FEAC4
:10570000501038BF01221043B0BD00BF02291CBF9A
:105710000320B0BD40F21A00C2F200000124047060
:105720002046B0BD61B1042910D1287902280FD0DC
:10573000012823D0A0BB6879012827D058B32FE0D7
:1057400040F21A00C2F20000002101700120B0BD39
:1057500040F27E22C2F200026979107881424FF055
:10576000000019D05378994216D0907881424FF0BA
:10577000020011D0D278914212D10DE040F27E2188
:10578000C2F2000168790A78904201D1002003E05A
:105790008978884204D1022003246870A87000E050
:1057A0000124FBF78BFD2879013028712046B0BD1C
:1057B000FCF76EBBB0B592B0002443F64000CDE9D3
:1057C0000A44CDE908440594CDE90344CDE90144F8
:1057D0000094C4F202000168022541F0805101608A
:1057E000006800F080500090009847F2000000949C
:1057F000C4F20000016841F4804101600068A82102
:1058000000F4804000900098012006904FF4803012
:1058100007904FF480000D9004200E90119006A880
:105820000C95CDE90F15FCF7FBFC18B172B600BF63
:10583000FEE700BF0F20CDE901054FF4A050049012
:105840004FF48050059001A805210394FCF7D8FB84
:1058500010B172B6FEE700BF12B0B0BD4EF6885070
:10586000CEF20000016841F4700101607047000051
:1058700010B541F6E87440F21801C2F20004C2F219
:10588000000120780978FFF71FFF2070207810BDF5
:1058900042F26420C2F20000FDF7A4BD42F264208F
:1058A000C2F20000FDF79EBD42F2AC20C2F2000041
:1058B000FDF798BD42F23C30C2F20000FDF792BD08
:1058C00042F28430C2F20000FDF78CBDB0B540F664
:1058D000FF3E0568C4F2000E40F2004C7045C4F271
:1058E000010C27DCB0F1804F31D040F20043C4F20C
:1058F000000398422BD040F60003C4F20003984204
:1059000025D041F6FF73C4F2000398422ADC7045AB
:105910003CDCB0F1804F5FD040F20043C4F20003A2
:10592000984259D040F60003C4F20003984253D085
:1059300057E000BF40F60043C4F20003984206D08F
:10594000604504D00023C4F201039842D9D14B68CA
:1059500025F0700243EA020541F6FF73C4F200032A
:105960009842D4DD43F6FF73C4F20103984221DC70
:1059700042F20003C4F2000398422DD00023C4F287
:105980000103984228D0604526D02AE040F6004323
:10599000C4F2000398421FD041F60003C4F2000392
:1059A000984219D041F60043C4F20003984213D044
:1059B00017E000BF44F20003C4F2010398420BD089
:1059C00044F60003C4F20103984205D044F20043B8
:1059D000C4F20103984204D1CB6825F4407243EA33
:1059E00002050A688C684B69C46240F48064826274
:1059F000644504BF09690163026825F0800142F033
:105A0000040219430260012242610160B0BD00003E
:105A1000806B0021C185FEF79BB80000806B016898
:105A20004A6990F84130212B2DD112F080022AD002
:105A30000021C184016851E8031F026821F0C00100
:105A400042E80313DBB1016851E8031F026821F04B
:105A5000C00142E8031393B1016851E8031F0268D3
:105A600021F0C00142E803134BB1016851E8031F64
:105A7000026821F0C00142E80313002BDAD1202193
:105A800080F841100168496990F84220222A40F0CC
:105A90007D8011F0400179D00021C185016851E875
:105AA000031F026821F4907142E80313BBB301683D
:105AB00051E8031F026821F4907142E8031373B3A5
:105AC000016851E8031F026821F4907142E8031352
:105AD0002BB3016851E8031F026821F4907142E87A
